:020000040000FA
:060000000A128A110C280F
:10000800FE00030EF6000A08F7000A128A111F28DC
:100018000A128A110F280A128A11CC200A128A1190
:10002800F800F001F101F201F301F401F501830197
:100038000A128A11BD280B1D222823283C28831266
:1000480003130108083E81000130F4070318F50A7C
:100058000030F507203074064E3003197506031D6D
:10006800362837283B28F401F501013088060B11A2
:10007800831203130C1C412842285A28FE308F0093
:100088000C308E000130F2070318F30A0030F30732
:10009800D8307206043003197306031D54285528F6
:1000A8005928F201F301023088060C108C1C5D28D7
:1000B8005E2872280130F0070318F10A0030F107B2
:1000C800E2307006043003197106031D6C286D2890
:1000D8007128F001F101043088068C1077088A0035
:1000E800760E8300FE0E7E0E09008312031388012C
:1000F8008316031388010A128A11C6200A128A116C
:100108000A128A11B3200A128A110A128A11962039
:100118000A128A110A128A11A6200A128A110B17CA
:100128008B1708008312031390161016FE308F00E9
:100138000C308E00831603130C14831203139010D3
:10014800101408008312031312149214FA30831641
:10015800031392008C1483120313121508008316DC
:1001680003138112811506308312031381008B1645
:1001780008000A128A1179200A128A11C2280A1262
:100188008A110C288316031306083F3886000800D6
:02019800013430
:02400E00FB3F76
:00000001FF
