:020000040000FA
:060000000A128A110C280F
:10000800FE00030EF7000A08F8000A128A114328B6
:100018000A128A110F280A128A1115210A128A1146
:10002800F0000A128A1116210A128A11F1000A1226
:100038008A1117210A128A11F2000A128A1118214C
:100048000A128A11F3000A128A1119210A128A1156
:10005800F4000A128A111A210A128A11F5000A12EA
:100068008A111B210A128A11F600A001A101A2011E
:10007800A301FA01FB0183010A128A11C6287B0831
:100088007502031D49287A087402031C4C284D2860
:1000980051288312031308145428831203130810D9
:1000A80064307A067B04031D5A285B285D28FA0110
:1000B800FB010130FA070318FB0A0030FB070B1D90
:1000C8006628672897280108083E81000130A007A4
:1000D800003003180130A107003003180130A207CF
:1000E800003003180130A30773082306031D862870
:1000F80072082206031D862871082106031D86281A
:1001080070082006031D89288A2896280A30F400DA
:100118000030F5000030A3000030A2000030A1003C
:100128000030A0000B1178088A00770E8300FE0EBD
:100138007E0E090083120313A4002408031DA528BA
:10014800A628A92806083F39C5283F300605F90022
:100158003F3079060319B128B228B928760803195F
:10016800B628B728B928F601A6283F300605F900B1
:100178003F307906031DC128C228C428F601F60AB3
:100188003F3008000A128A11F9200A128A11013038
:100198000A128A119E200A128A11FF007F08831210
:1001A8000313A5003E302506031DDB28DC28CB28D9
:1001B8006430F4000030F50001308100CB280A12C9
:1001C8008A110C287E088A007F0882000A128A1188
:1001D800E6200A128A118000840A04087D060319A1
:1001E8000034FF0A0319FE0AEA2883120313880160
:1001F8008316031388010A128A111C210A128A1114
:100208000A128A110B210A128A118B170800831609
:1002180003138112811506308312031381008B1694
:100228000800A034863401340034323400340134F8
:0C0238008316031306083F3886000800F8
:02400E00FB3F76
:00000001FF
