:020000040000FA
:060000000A128A110C280F
:10000800FE00030EF4000A08F5000A128A112B28D4
:100018000A128A110F2883133130FD000130FE00C7
:100028008430FF00293084000A128A1159210A12EB
:100038008A110A128A1192210A128A11FA00F6010B
:10004800F701F801F90183010A128A11B3280B1D7F
:100058002E282F28AC288312031330087902031D99
:100068003F282F087802031D3F282E087702031D1A
:100078003F282D08760203184228432844280814EC
:1000880030087902031D52282F087802031D5228D0
:100098002E087702031D52282D087602031C5528C6
:1000A800562869282C087902031D64282B08780231
:1000B800031D64282A087702031D6428290876028C
:1000C800031867286828692808100130F6070030E7
:1000D80003180130F707003003180130F807003023
:1000E80003180130F9070130F0000030F10000304A
:1000F800F2000030F3002908F0072A0803182A0F35
:1001080086288728F1072B0803182B0F8C288D28A1
:10011800F2072C0803182C0AF30779087306031D45
:100128009F2878087206031D9F2877087106031D0B
:100138009F2876087006031DA228A328AB28003044
:10014800F9000030F8000030F7000030F6000B111D
:1001580075088A00740E8300FE0E7E0E09000A12CE
:100168008A1168210A128A11013083120313A60228
:100178000030031CA703A702260A031DC728270A65
:10018800031DC728C828B828C430A6000930A7000E
:1001980000300A128A112D210A128A11FF007F08E5
:1001A80083120313A8003E302806031DDC28DD282F
:1001B800FE282C083006031DEB282B082F06031DEC
:1001C800EB282A082E06031DEB2829082D060319FB
:1001D800EE28EF28B8280130AD07003003180130A9
:1001E800AE07003003180130AF07003003180130A4
:1001F800B007B8283D302806031D032904292929FA
:1002080030082F042E042D0403190B290C29292941
:100218000130A2000030A3000030A4000030A50087
:100228002208AD022308031C230F1B291C29AE0238
:100238002408031C240F21292229AF022508031CA6
:10024800250F27292829B002B828B8280A128A11A8
:100258000C2883120313A1002108031D3429352912
:10026800382906083F3954293F300605A0003F3099
:10027800200603194029412948297A0803194529E4
:1002880046294829FA0135293F300605A0003F30A4
:100298002006031D502951295329FA01FA0A3F3033
:1002A80008007E088A007F0882000A128A115521F8
:1002B8000A128A118000840A04087D060319003492
:1002C800FF0A0319FE0A59298312031388018316AA
:1002D800031388010A128A118C210A128A110A1240
:1002E8008A117A210A128A118B17080083160313C0
:1002F8008112811506308312031381008B160800C2
:1003080064340034003400343234003400340034AF
:0E0318008316031306083F38860008000134E0
:02400E00FB3F76
:00000001FF
