:020000040000FA
:060000000A128A110C280F
:10000800FE00030EF4000A08F5000A128A112B28D4
:100018000A128A110F2883133130FD000130FE00C7
:100028008230FF00293084000A128A1157210A12EF
:100038008A110A128A1190210A128A11FA00F6010D
:10004800F701F801F90183010A128A11B3280B1D7F
:100058002E282F28AC288312031330087902031D99
:100068003F282F087802031D3F282E087702031D1A
:100078003F282D08760203184228432844280814EC
:1000880030087902031D52282F087802031D5228D0
:100098002E087702031D52282D087602031C5528C6
:1000A800562869282C087902031D64282B08780231
:1000B800031D64282A087702031D6428290876028C
:1000C800031867286828692808100130F6070030E7
:1000D80003180130F707003003180130F807003023
:1000E80003180130F9070130F0000030F10000304A
:1000F800F2000030F3002908F0072A0803182A0F35
:1001080086288728F1072B0803182B0F8C288D28A1
:10011800F2072C0803182C0AF30779087306031D45
:100128009F2878087206031D9F2877087106031D0B
:100138009F2876087006031DA228A328AB28003044
:10014800F9000030F8000030F7000030F6000B111D
:1001580075088A00740E8300FE0E7E0E09000A12CE
:100168008A1166210A128A11013083120313A6022A
:100178000030031CA703A702260A031DC728270A65
:10018800031DC728C828B828C430A6000930A7000E
:1001980000300A128A112B210A128A1183120313C2
:1001A800A8003E302806031DDA28DB28FC282C0886
:1001B8003006031DE9282B082F06031DE9282A0805
:1001C8002E06031DE92829082D060319EC28ED2819
:1001D800B8280130AD07003003180130AE070030F1
:1001E80003180130AF07003003180130B007B828F2
:1001F8003D302806031D01290229272930082F042C
:100208002E042D04031909290A2927290130A200DF
:100218000030A3000030A4000030A5002208AD0281
:100228002308031C230F19291A29AE022408031CCA
:10023800240F1F292029AF022508031C250F252973
:100248002629B002B828B8280A128A110C28831265
:100258000313A1002108031D322933293629060872
:100268003F3952293F300605A0003F3020060319C8
:100278003E293F2946297A08031943294429462952
:10028800FA0133293F300605A0003F302006031D40
:100298004E294F295129FA01FA0A3F3008007E08F1
:1002A8008A007F0882000A128A1153210A128A11D1
:1002B8008000840A04087D0603190034FF0A031924
:1002C800FE0A572983120313880183160313880132
:1002D8000A128A118A210A128A110A128A117821AD
:1002E8000A128A118B1708008316031381128115CD
:1002F80006308312031381008B160800643400341F
:1003080000340034323400340034003483160313CC
:0A03180006083F3886000800013493
:02400E00FB3F76
:00000001FF
