:020000040000FA
:060000000A128A11E82F2C
:10066C0001348316031306083F38860008000A126B
:10067C008A1137230A128A110A128A1148230A1284
:10068C008A110800831603138801050803398500B5
:10069C008312031305080339850008003F34063420
:1006AC005B344F3466346D347D3407347F346F34AF
:1006BC003F343F343F343F347E088A007F08820049
:1006CC000A128A1162230A128A118000840A040811
:1006DC007D0603190034FF0A0319FE0A662BF0008D
:1006EC006400831603178C187C2B7D2B762B7008DB
:1006FC00831203178D003F30FF007F08831603170A
:10070C008C050C14831203170C080800F501F60174
:10071C00711C912B922B982B7308F5070318F60A72
:10072C007408F60701300310F30DF40DFF3E031DA2
:10073C00992B01300310F20CF10CFF3E031DA02B82
:10074C0071087204031DAB2BAC2B8E2B7608F200B8
:10075C007508F1000800F1007108031DB62BB72BCA
:10076C00BC2B8312031306083F39DA2B3F3083125C
:10077C0003130605F0003F3070060319C62BC72B78
:10078C00CE2B7C080319CB2BCC2BCE2BFC01B72BFF
:10079C003F300605F0003F307006031DD62BD72BDB
:1007AC00D92BFC01FC0A3F300800FB008316031711
:1007BC008C18E12BE22BDC2B7B08831203178D00AA
:1007CC00831203132D08831203178C003F30FF0094
:1007DC007F08831603178C058312031303108B1FDA
:1007EC00F82BF92BFA2B03148B13831603170C1508
:1007FC0055308D00AA308D008C140C11831203130C
:10080C00031C092C0A2C0B2C8B1708007308720480
:10081C00710470040319132C142C572CF901F90AC8
:10082C00242C0130F8000310F00DF10DF20DF30D36
:10083C00F80B192C0130FF007F08F907F31F272C48
:10084C00282C172C73087702031D362C720876029D
:10085C00031D362C71087502031D362C70087402AA
:10086C00031C392C3A2C482C7008F4027108031C18
:10087C00710FF5027208031C720FF6027308031C49
:10088C00730FF70201300310F30CF20CF10CF00CA7
:10089C00FF3E031D492C0130F902031D562C572C29
:1008AC00282C7708F3007608F2007508F10074081C
:1008BC00F0000800F800F90179087807F0007008DA
:1008CC008400831300088312031388000430F000A3
:1008DC00790A722C0310F00DFF3E031D702C0508D5
:1008EC000339700485000030F7000030F600013049
:1008FC00F5009030F4000130F0000030F1000030D1
:10090C00F2000030F3007008F4027108031C710F40
:10091C00902C912CF5027208031C720F962C972CBC
:10092C00F6027308031C730F9C2C9D2CF702740A9F
:10093C00031DAA2C750A031DAA2C760A031DAA2CCA
:10094C00770A031DAA2CAB2C812C0130FF007F08E9
:10095C00F90704307902031CB42CB52C622C080066
:10096C00003083120313AB000030AA000030A90042
:10097C000030A80023082204210420040319C72CEA
:10098C00C82C152DAC01AC0AD82C0130FA00031080
:10099C00A00DA10DA20DA30DFA0BCD2C0130FF0063
:1009AC007F08AC07A31FDB2CDC2CCB2C0130FA000E
:1009BC000310A80DA90DAA0DAB0DFA0BDE2C230804
:1009CC002702031DF32C22082602031DF32C2108F9
:1009DC002502031DF32C20082402031CF62CF72CF3
:1009EC00062D2008A4022108031C210FA5022208B1
:1009FC00031C220FA6022308031C230FA702281492
:100A0C0001300310A30CA20CA10CA00CFF3E031D83
:100A1C00072D0130AC02031D142D152DDC2C2B08D9
:100A2C00A3002A08A2002908A1002808A000080099
:100A3C00831203135C08C9005B08C8005A08C7007E
:100A4C005908C600383084004F30AE000408AF009F
:100A5C000A30B0002E08840083130008B100AE0ADF
:100A6C002F08840031088000AF0AB00B302D003005
:100A7C00C5000030C4000030C3000030C2000A12B0
:100A8C008A113D230A128A1100300A128A11752329
:100A9C000A128A1183120313AE00AF012E08F10063
:100AAC002F08F200E830F3000330F4000A128A1128
:100ABC008C230A128A11710883120313CB0072085B
:100ACC00CC000030CC1BFF30CD00CE004B08AE006C
:100ADC004C08AF004D08B0004E08B10001300A12AE
:100AEC008A1175230A128A1183120313B200B301FF
:100AFC003208F1003308F2006430F3000030F400E7
:100B0C000A128A118C230A128A1171088312031398
:100B1C00B4007208B5000030B51BFF30B600B7004A
:100B2C003408AE0735080318350F9D2D9E2DAF07E1
:100B3C0036080318360FA32DA42DB0073708031859
:100B4C00370AB1073108CE003008CD002F08CC0091
:100B5C002E08CB004B08AE004C08AF004D08B0007F
:100B6C004E08B10002300A128A1175230A128A113A
:100B7C0083120313B200B3013208F1003308F20000
:100B8C000A30F3000030F4000A128A118C230A1286
:100B9C008A11710883120313B4007208B500003077
:100BAC00B51BFF30B600B7003408AE073508031884
:100BBC00350FE12DE22DAF0736080318360FE72D60
:100BCC00E82DB00737080318370AB1073108CE00F3
:100BDC003008CD002F08CC002E08CB004B08AE00FF
:100BEC004C08AF004D08B0004E08B10003300A129B
:100BFC008A1175230A128A1183120313B200B301EE
:100C0C00B401B5013208AE0733080318330F0F2EA9
:100C1C00102EAF0734080318340F152E162EB007FC
:100C2C0035080318350AB1073108CE003008CD005D
:100C3C002F08CC002E08CB0000300A128A11B123E9
:100C4C000A128A11FF007F0883120313CA000130B5
:100C5C00C207003003180130C307003003180130FD
:100C6C00C407003003180130C50765304206430441
:100C7C0044044504031D432E442E742E0030C5003D
:100C8C000030C4000030C3000030C2000130CB077C
:100C9C00003003180130CC07003003180130CD07A9
:100CAC00003003180130CE074E08031D6C2E4D0882
:100CBC00031D6C2E27304C02031D682E10304B0286
:100CCC00031D682E031C6B2E6C2E742E0030CE0070
:100CDC000030CD000030CC000030CB000030F300F1
:100CEC000030F2000030F1000A30F0004E08F7003E
:100CFC004D08F6004C08F5004B08F4000A128A1156
:100D0C000C240A128A117008383E840083130008E0
:100D1C00FF007F0883120313C9000030A3000030CA
:100D2C00A2000030A1000A30A0004E08F7004D08C8
:100D3C00F6004C08F5004B08F4000030F3000030CE
:100D4C00F2000030F1006430F0000A128A110C2419
:100D5C000A128A11730883120313A7007208A600E3
:100D6C007108A5007008A4000A128A11B6240A1290
:100D7C008A11831203132008383E84008313000861
:100D8C00FF007F08C8000030A3000030A200003034
:100D9C00A1006430A0004E08F7004D08F6004C0886
:100DAC00F5004B08F4000030F3000030F200033083
:100DBC00F100E830F0000A128A110C240A128A1190
:100DCC00730883120313A7007208A6007108A5000C
:100DDC007008A4000A128A11B6240A128A1183120E
:100DEC0003132008383E840083130008FF007F089B
:100DFC00C7000030A3000030A2000330A100E8308F
:100E0C00A0004E08A7004D08A6004C08A5004B08F2
:100E1C00A4000A128A11B6240A128A11831203132F
:100E2C002008383E840083130008FF007F08C600AA
:100E3C0046300A128A1160240A128A113D3083123C
:100E4C0003134A06031D2B2F2C2F222E0030F300E8
:100E5C000030F2000030F1000A30F0004E08F700CC
:100E6C004D08F6004C08F5004B08F4000A128A11E4
:100E7C000C240A128A117008FF007F0883120313D6
:100E8C00AD0003300A128A11DB230A128A110030DA
:100E9C00F3000030F2000030F1000A30F0000030B6
:100EAC0083120313A3000030A2000030A1000A300B
:100EBC00A0004E08A7004D08A6004C08A5004B0842
:100ECC00A4000A128A11B6240A128A11831203137F
:100EDC002308F7002208F6002108F5002008F4008A
:100EEC000A128A110C240A128A117008FF007F085A
:100EFC0083120313AD0002300A128A11DB230A128B
:100F0C008A11003083120313A3000030A2000030BA
:100F1C00A1006430A0004E08F7004D08F6004C0804
:100F2C00F5004B08F4000030F3000030F200033001
:100F3C00F100E830F0000A128A110C240A128A110E
:100F4C00730883120313A7007208A6007108A5008A
:100F5C007008A4000A128A11B6240A128A1183128C
:100F6C0003132008FF007F08AD0001300A128A111C
:100F7C00DB230A128A11003083120313A300003002
:100F8C00A2000330A100E830A0004E08A7004D08D5
:100F9C00A6004C08A5004B08A4000A128A11B6241E
:100FAC000A128A11831203132008FF007F08AD0078
:100FBC0000300A128A11DB230A128A11222E0A121D
:100FCC008A11002883135D30FD000330FE0054307D
:100FDC00FF004F3084000A128A1166230A128A110C
:100FEC000A128A1136230A128A11FC0083010A1292
:040FFC008A111E2D0B
:02400E00FB3F76
:00000001FF
