:020000040000FA
:060000000A128A11FC2F18
:100E720083160313860183120313860108000A12E4
:100E82008A1139270A128A11F501F6010030F4009D
:100E92000030F3000030F2000030F1000130F107C1
:100EA200003003180130F207003003180130F30755
:100EB200003003180130F407A030710686300319A0
:100EC2007206031D692F73037404031D692F6A2FB1
:100ED2004F2F0030F4000030F3000030F2000030F9
:100EE200F100F61B752F762F882F7608803AFF00C7
:100EF20080307F02031D7F2F083075020318822F76
:100F0200832F882F031483120313860DF22F760882
:100F1200803AFF0080307F02031D912F0830750256
:100F2200031C942F952FA92F7608803AFF0080305A
:100F32007F02031D9E2F103075020318A12FA22FCE
:100F4200A92F831203130608F00070078600F22F00
:100F52007608803AFF0080307F02031DB22F1030E6
:100F62007502031CB52FB62FCC2F7608803AFF00EE
:100F720080307F02031DBF2F183075020318C22F65
:100F8200C32FCC2F831203130608F0000310700C3A
:100F920080388600F22F7608803AFF0080307F0288
:100FA200031DD52F18307502031CD82FD92FEE2F11
:100FB2007608803AFF0080307F02031DE22F203046
:100FC20075020318E52FE62FEE2F8312031306088E
:100FD200F0000310700C8600F22FFF30F500FF3096
:100FE200F6000130F5070318F60A0030F6074F2F16
:0E0FF2000A128A11002883010A128A11402F68
:02400E00FB3F76
:00000001FF
