:020000040000FA
:100000000A128A11EC2F00308A000408840A820741
:10001000003455344134523454342034543465342B
:1000200073347434203443346F34643465340A34A4
:040030000D34003457
:10091C00831203138C1E8E2C8C121A080800640090
:10092C008001840A0406031900340406962C8316ED
:10093C0003138801091189100A128A118C260800E8
:10094C00F00070088312031399000C1EAB2C0C12D0
:10095C0008000A128A119D240A128A11003083128F
:10096C000313A3000030A2002530A1008030A000AA
:10097C000A128A114C250A128A1101300A128A11A4
:10098C00CA240B178B170800F100710884000A1297
:10099C008A1103200A128A11003A031908007108FF
:1009AC0084000A128A1103200A128A110A128A116F
:1009BC00A6240A128A110130FF007F08F107CB2C04
:1009CC007008F2007108F300720884008317731C1E
:1009DC00831300080319F92C0130F2070318F30AEA
:1009EC000030F307EA2C70087202F0007108031C47
:1009FC00710A7302F1000800F500F00174080A1284
:100A0C008A1180250A128A11750884008313000844
:100A1C0003190800F001F00A7508840000080A1296
:100A2C008A1180250A128A110130FF007F08F50710
:100A3C000A2DF200F301262D0D3071060319412DFC
:100A4C0073087207F000700884000A128A118E2451
:100A5C000A128A118317800073087207F00070085D
:100A6C0084000008F1000130FF007F08F3070A3012
:100A7C007106031D222D0130FF007F08F307730858
:100A8C007207F000700884008001080083120313C1
:100A9C009817831603131815981683120313181638
:100AAC002008A4002108A5002208A6002308A700FE
:100ABC0004300310A40DA50DA60DA70DFF3E031DBC
:100ACC005F2D2708F3002608F2002508F100240802
:100ADC00F0000130F7003130F6002D30F500003019
:100AEC00F4000A128A112E267008FF3E8316031397
:100AFC0099000800F300701C872D8312031309154D
:100B0C008A2D8312031309117308F0398800891494
:100B1C00A630F100F10B902D000083120313891005
:100B2C0073080F39F10003300310F10DFF3E031D64
:100B3C009A2D0310710D88008914A630F100F10B69
:100B4C00A52D00008312031389101B30F2009E3078
:100B5C00F100F10BAF2DF20BAF2D00000800F300EC
:100B6C00701CBC2D831203130915BF2D83120313A4
:100B7C0009117308F03988008914A630F100F10BC3
:100B8C00C52D000083120313891073080F39F1006F
:100B9C0003300310F10DFF3E031DCF2D0310710D1B
:100BAC0088008914A630F100F10BDA2D00008312B5
:100BBC00031389101B30F2009E30F100F10BE42D71
:100BCC00F20BE42D000008007408FB007508FC0013
:100BDC00770878040319212E0130F7020030031C2A
:100BEC00F803F8020130F607FF30760784000A128A
:100BFC008A1103200A128A11FF007C08FA007B0874
:100C0C00F900FB0A0319FC0A7908840083177A1C83
:100C1C0083137F08800000080319212EEE2D7B081A
:100C2C00840083177C1C831380010130FB0703189D
:100C3C00FC0A0030FC070130F7020030031CF803FB
:100C4C00F802770A031D152E780A03190800152ED1
:100C5C000030FC000030FB000030FA000030F900DE
:100C6C0073087204710470040319832EFD01FD0ACC
:100C7C00F31B4E2E0130F8000310F00DF10DF20DA8
:100C8C00F30DF80B422E0130FF007F08FD073E2EBE
:100C9C000130F8000310F90DFA0DFB0DFC0DF80BEB
:100CAC00502E73087702031D652E72087602031D01
:100CBC00652E71087502031D652E70087402031CE5
:100CCC00762E7008F4027108031C710FF50272087D
:100CDC00031C720FF6027308031C730FF7027914CE
:100CEC0001300310F30CF20CF10CF00CFF3E031D61
:100CFC00772E0130FD02031D4E2E7C08F3007B087D
:100D0C00F2007A08F1007908F0000800C330F50011
:100D1C00CD30F400F40B902EF50B902EF001333007
:100D2C000A128A1180250A128A111B30F5009E3096
:100D3C00F400F40B9F2EF50B9F2E0000F0013330C6
:100D4C000A128A1180250A128A11A630F400F40BBB
:100D5C00AD2E0000F00133300A128A1180250A12E0
:100D6C008A11B82EB92E0000F00102300A128A1135
:100D7C0080250A128A11A630F400F40BC32E000051
:100D8C00F00128300A128A1180250A128A11A63025
:100D9C00F400F40BCF2E0000F00101300A128A117E
:100DAC0080250A128A110430F5003D30F400F40B52
:100DBC00DD2EF50BDD2EE22EF0010C300A128A111D
:100DCC0080250A128A11A630F400F40BEB2E0000D9
:100DDC000800903084005A30FF0083178001840A89
:100DEC00FF0BF32E393084001130FF008313800188
:100DFC00840AFF0BFC2E283084001130FF00800188
:100E0C00840AFF0B052F83120313CA01CB010A12AC
:100E1C008A11AF240A128A1190300A128A111F25E6
:100E2C000A128A1183120313CC01CD019030F00009
:100E3C000130F1000A128A11E6240A128A11710893
:100E4C00831203134D02031D2D2F70084C0203183F
:100E5C00BA2F0130CA070318CB0A0030CB07003079
:100E6C004B02213003194A02031C8C2F1130CA008B
:100E7C000030CB003930F4000030F5001130F600B2
:100E8C003930F0000030F1000A128A11E6240A12FF
:100E9C008A117108F8007008F7000A128A11EA2505
:100EAC000A128A1183120313CC01CD014C08283E7F
:100EBC00840083130008FF004C08393E84007F082F
:100ECC0080000130CC070318CD0A0030CD0700306C
:100EDC004D02103003194C02031C5C2F2830F40017
:100EEC000030F5001130F6002830F0000030F10031
:100EFC000A128A11E6240A128A117108F800700885
:100F0C00F7000A128A11EA250A128A11003083129C
:100F1C0003134B02113003194A02031C9F2F4C0878
:100F2C00903E840083170008FF004A08EF3E283EDD
:100F3C00AF2F00304B02113003194A020318B32FA4
:100F4C004C08903E840083170008FF004A08FF3EBF
:100F5C00393E84007F08831380000130CC070318CE
:100F6C00CD0A0030CD071C2FC901B8019030F40018
:100F7C000130F5001130F6009030F0000130F10036
:100F8C000A128A11E6240A128A117108F8007008F4
:100F9C00F7000A128A11EA250A128A11F0010130AF
:100FAC000A128A11B5250A128A118030F4003930E0
:100FBC000A128A1102250A128A11C030F400283054
:100FCC000A128A1102250A128A11122F83134E302B
:100FDC00840070300A128A1195240A128A11831720
:100FEC00103084006A300A128A11952483010A1287
:040FFC008A11EF2E39
:02400E00FB3F76
:00000001FF
