:020000040000FA
:060000000A128A11E22F32
:100B5C0001348316031306083F38860008000A1276
:100B6C008A11AF250A128A110A128A11C0250A129B
:100B7C008A110800831603138801050803398500C0
:100B8C008312031305080339850008003F3406342B
:100B9C005B344F3466346D347D3407347F346F34BA
:100BAC003F343F343F343F34013400347E088A00F4
:100BBC007F0882000A128A11DC250A128A11800031
:100BCC00840A04087D0603190034FF0A0319FE0A7F
:100BDC00E02DF1007108031DF42DF52DFA2D831273
:100BEC00031306083F39182E3F30831203130605F2
:100BFC00F0003F3070060319042E052E0C2E7C08D5
:100C0C000319092E0A2E0C2EFC01F52D3F3006057A
:100C1C00F0003F307006031D142E152E172EFC010C
:100C2C00FC0A3F3008007008710403191E2E1F2E99
:100C3C004E2EF401F40A2D2E01300310F00DF10D9F
:100C4C00FF3E031D232E0130FF007F08F407F11F28
:100C5C00302E312E222E71087302031D372E700890
:100C6C007202031C3A2E3B2E412E7008F2027108C0
:100C7C00031CF303F30201300310F10CF00CFF3EE4
:100C8C00031D422E0130F402031D4D2E4E2E312E2B
:100C9C007308F1007208F0000800F901FA017508F8
:100CAC00760403195A2E5B2E922EFB01FB0A692E39
:100CBC0001300310F50DF60DFF3E031D5F2E0130C4
:100CCC00FF007F08FB07F61F6C2E6D2E5E2E013089
:100CDC000310F90DFA0DFF3E031D6E2E76087802F7
:100CEC00031D7A2E75087702031C7D2E7E2E852E11
:100CFC007508F7027608031CF803F8027914013022
:100D0C000310F60CF50CFF3E031D862E0130FB0282
:100D1C00031D912E922E6D2E7A08F6007908F5009F
:100D2C000800F800F90179087807F00070088400D1
:100D3C00831300088312031388000430F000790A2F
:100D4C00A92E0310F00DFF3E031DA72E0508033935
:100D5C00700485000030F7000030F6000130F5001B
:100D6C009030F4000130F0000030F1000030F2005F
:100D7C000030F3007008F4027108031C710FC72EC9
:100D8C00C82EF5027208031C720FCD2ECE2EF60261
:100D9C007308031C730FD32ED42EF702740A031D91
:100DAC00E12E750A031DE12E760A031DE12E770A4A
:100DBC00031DE12EE22EB82E0130FF007F08F9074B
:100DCC0004307902031CEB2EEC2E992E08008312B2
:100DDC0003134008B1003F08B0003E08AF003D08C7
:100DEC00AE00243084003330A0000408A1000A3087
:100DFC00A2002008840083130008A300A00A210885
:100E0C00840023088000A10AA20BFF2E0A128A116B
:100E1C00B5250A128A1100300A128A11EF250A121E
:100E2C008A11FF007F0883120313B2003E30320692
:100E3C00031D212F222F382F410842040319272F7D
:100E4C00282F312F0130C7070318C80A0030C807F4
:100E5C00C101C2013C2F0130C3020030031CC4038A
:100E6C00C4023C2F0130C1000030C20043084404CE
:100E7C000319412F422FC82F0130C5070318C60A8A
:100E8C000030C6071A3045064604031D4E2F4F2F5F
:100E9C00CE2F0A30F0000030F1004808F30047086C
:100EAC00F2000A128A1119260A128A117008243EBD
:100EBC00840083130008FF007F0883120313B10022
:100ECC000A30F5000030F6004808F3004708F2003D
:100EDC006430F0000030F1000A128A1119260A124F
:100EEC008A117108F8007008F7000A128A1153264B
:100EFC000A128A117508243E840083130008FF002F
:100F0C007F0883120313B0006430F5000030F60044
:100F1C004808F3004708F200E830F0000330F10015
:100F2C000A128A1119260A128A117108F80070081F
:100F3C00F7000A128A1153260A128A117508243EE8
:100F4C00840083130008FF007F0883120313AF0093
:100F5C00E830F5000330F6004808F8004708F700C1
:100F6C000A128A1153260A128A117508243E84002B
:100F7C0083130008FF007F0883120313AE00C50122
:100F8C00C601CE2FC830C3000030C400C701C80151
:100F9C00273048020F3003194702031CD62FD72FD6
:100FAC00D82FD72F2E300A128A1197260A128A119F
:100FBC00112F0A128A11002883134330FD000530CB
:100FCC00FE00CC30FF00333084000A128A11E02579
:100FDC000A128A110A128A11AE250A128A11FC0011
:100FEC00C301C401C501C601C701C80183010A12AE
:040FFC008A11ED2E3B
:02400E00FB3F76
:00000001FF
