:020000040000FA
:060000000A128A1110280B
:10000800FE00030EFB000A08FC00831203137F089E
:10001800FD000A128A1137280A128A1113280A12B7
:100028008A1167210A128A11A8000A128A11682106
:100038000A128A11A9000A128A1169210A128A1160
:10004800AA000A128A116A210A128A11AB00A001B9
:10005800A101A201A301A401A501A601A701830191
:100068000A128A111C290A30F0000030F100310808
:10007800F3003008F2000A128A11D8200A128A11F5
:10008800700883120313A0007108A100A201A30144
:100098000B1D4F285028CF280108083E810023084F
:1000A8002702031D612822082602031D6128210852
:1000B8002502031D612820082402031864286528E6
:1000C800672808148C2823082702031D752822088E
:1000D8002602031D752821082502031D75282008FE
:1000E8002402031C782879288C282B082702031D52
:1000F80087282A082602031D872829082502031DA8
:1001080087282808240203188A288B288C28081096
:100118000130A407003003180130A5070030031888
:100128000130A607003003180130A7070130F70097
:100138000030F8000030F9000030FA002808F7070E
:1001480029080318290FA928AA28F8072A08031834
:100158002A0FAF28B028F9072B0803182B0AFA072B
:1001680027087A06031DC22826087906031DC22817
:1001780025087806031DC22824087706031DC5280C
:10018800C628CE280030A7000030A6000030A50001
:100198000030A4000B117D08FF007C088A007B0E4C
:1001A8008300FE0E7E0E0900F401F501700871044B
:1001B8000319DF28E0281729F601F60AEE2801308E
:1001C8000310F00DF10DFF3E031DE4280130FF0080
:1001D8007F08F607F11FF128F228E3280130031001
:1001E800F40DF50DFF3E031DF32871087302031D7E
:1001F800FF2870087202031C022903290A297008C3
:10020800F2027108031CF303F302741401300310A3
:10021800F10CF00CFF3E031D0B290130F602031D03
:1002280016291729F2287508F1007408F00008004B
:100238000A128A1144210A128A110A128A113021DB
:100248000A128A11831203132D08B1002C08B0007A
:1002580021290A128A111028831203131F151F1946
:100268003629372933291E08AF00831603131E08C1
:1002780083120313AE002F08AD002E08AC0008004F
:100288008312031388018316031388010A128A1143
:1002980060210A128A110A128A1156210A128A1139
:1002A8008B170800831603138112811506308312F9
:1002B800031381008B160800831603139F178312FC
:0E02C80003131F1408006434003400340034A3
:02400E00FB3F76
:00000001FF
