:020000040000FA
:060000000A128A110C280F
:10000800FE00030EF0000A08F1000A128A1189287E
:100018000A128A110F280A128A1113210A128A1148
:10002800A6000A128A1114210A128A11A7000A12BC
:100038008A1115210A128A11A8000A128A1116219A
:100048000A128A11A900AA01AB01F601F70183017E
:100058000A128A11BB2883120313A400A5012508DC
:100068002407F20072088400831300088800043013
:10007800F200250A41280310F20DFF3E031D3F2818
:1000880005080339720485000030A3000030A2007F
:100098000130A1009030A0000130F2000030F300E0
:1000A8000030F4000030F500720883120313A00238
:1000B8007308031C730F61286228A1027408031CCB
:1000C800740F67286828A2027508031C750F6D282D
:1000D8006E28A302200A031D7B28210A031D7B2802
:1000E800220A031D7B28230A031D7B287C2850280D
:1000F8000130FF007F0883120313A507043025028F
:10010800031C87288828332808000B1D8C288D2875
:10011800B428831203130108083E81000130AA079E
:100128000318AB0A0030AB0798302A063A30031997
:100138002B06031DA028A128B3288B1CA428A528BA
:10014800A928F601F7018B108B160130F607031862
:10015800F70A0030F707AA01AB01803086060B11B9
:1001680071088A00700E8300FE0E7E0E09000A12C6
:100178008A11EA200A128A117708803AFF00803033
:100188007F02031DC92806307602031CCC28CD281F
:10019800D3288B1283120313860188016300770822
:1001A800803AFF0080307F02031DDC28063076028B
:1001B8000318DF28E028C02826300A128A112F20C9
:1001C8000A128A11C0280A128A110C2883160313EE
:1001D80086130A128A11FD200A128A110A128A113C
:1001E80009210A128A118312031386138B170B161F
:1001F8000800831603138801050803398500831254
:1002080003130508033985000800831603138112B8
:10021800811506308312031381008B1608000634FB
:060228005B344F34663424
:02400E00FB3F76
:00000001FF
