:020000040000FA
:100000000A128A11FC2FFF1B0D2883137F188317F8
:100010000008840A0319FF0A080000308A00040857
:10002000840A8207003452346F346F346D342034C4
:10003000543465346D34703420342034203400342A
:1001EE00831603139F17831203131F14080083161D
:1001FE0003138801091189100A128A1102230A12A7
:10020E008A1108000A128A11FE200A128A110A1295
:10021E008A11F7200A128A110130F4008030F5009D
:10022E008130FF007F08F6000A128A1167210A1238
:10023E008A110800F5007508F20003300310F20D64
:10024E00FF3E031D2529831203131F08C7397204AD
:10025E009F001F151F193429352931291E08F40056
:10026E00831603131E08F3007408F1007308F000E0
:10027E000800F800F401F5017008F200F3017208AD
:10028E00F6007308F700781C4D294E29542976087C
:10029E00F4070318F50A7708F50701300310F60D79
:1002AE00F70DFF3E031D55290310F80C7808031DAA
:1002BE00612962294A297508F1007408F0000800C6
:1002CE00F00176080A128A1196210A128A118529DE
:1002DE00F001F00A7508FF00740884000A128A11F2
:1002EE0003200A128A110A128A1196210A128A1101
:1002FE000130F4070318F50A0030F507750883126C
:10030E000313FF00740884000A128A1103200A12D4
:10031E008A11003A031D942995296F290800F300CC
:10032E0070189A299E29831203130915A129831285
:10033E00031309117308F03988008914A630F100EF
:10034E00F10BA729000083120313891073080F39CC
:10035E00F10003300310F10DFF3E031DB129031010
:10036E00710D88008914A630F100F10BBC29000034
:10037E008312031389101B30F2009E30F100F10B33
:10038E00C629F20BC6290000080070087104031973
:10039E00D129D229012AF401F40AE02901300310EF
:1003AE00F00DF10DFF3E031DD6290130FF007F0831
:1003BE00F407F11FE329E429D52971087302031DFF
:1003CE00EA2970087202031CED29EE29F42970083F
:1003DE00F2027108031CF303F30201300310F10C57
:1003EE00F00CFF3E031DF5290130F402031D002A17
:1003FE00012AE4297308F1007208F0000800F401E4
:10040E00F5017008710403190D2A0E2A452AF6010A
:10041E00F60A1C2A01300310F00DF10DFF3E031DEC
:10042E00122A0130FF007F08F607F11F1F2A202A2B
:10043E00112A01300310F40DF50DFF3E031D212A84
:10044E0071087302031D2D2A70087202031C302AD4
:10045E00312A382A7008F2027108031CF303F302E2
:10046E00741401300310F10CF00CFF3E031D392AF9
:10047E000130F602031D442A452A202A7508F10090
:10048E007408F00008000A128A1109210A128A1152
:10049E0002300A128A1121210A128A11710883125E
:1004AE000313C5007008C4004408F0004508F100AD
:1004BE00F201F30100300A128A11E1230A128A11A5
:1004CE00730883120313A7007208A6007108A50013
:1004DE007008A4003E30A300F930A200DB30A1006A
:1004EE002330A0000A128A119B240A128A11831249
:1004FE0003132308BD002208BC002108BB002008FE
:10050E00BA000A128A1165230A128A118312031382
:10051E003B08C7003A08C6004708F8004608F7002F
:10052E000A128A11A0220A128A114F2A0A128A115D
:10053E000028013083120313A8000030A9000A30EE
:10054E00F0000030F1007808F3007708F2000A128C
:10055E008A11CC210A128A117008303EFF008312D4
:10056E0003132808203E84007F08831380000A307E
:10057E00F0000030F1007808F3007708F2000A125C
:10058E008A1106220A128A117108F8007008F70003
:10059E00FF3083120313A8070318A90AFF30A90717
:1005AE00280A031DDE2A290A031DDE2ADF2AA62AAF
:1005BE002E30FF007F08A2003030FF007F08A3001E
:1005CE003030FF007F08A400DF30FF007F08A50059
:1005DE004330FF007F08A600A7012030F400003052
:1005EE00F500C830FF007F08F6000A128A11672155
:1005FE000A128A110800C330F500CD30F400F40B56
:10060E00062BF50B062BF00133300A128A119621B8
:10061E000A128A111B30F5009E30F400F40B152BD4
:10062E00F50B152B0000F00133300A128A119621BA
:10063E000A128A11A630F400F40B232B0000F001ED
:10064E0033300A128A1196210A128A112E2B2F2B61
:10065E000000F00102300A128A1196210A128A1144
:10066E00A630F400F40B392B0000F00128300A12EA
:10067E008A1196210A128A11A630F400F40B452B2A
:10068E000000F00101300A128A1196210A128A1115
:10069E000430F5003D30F400F40B532BF50B532BC7
:1006AE00582BF0010C300A128A1196210A128A1167
:1006BE00A630F400F40B612B000008000310831227
:1006CE0003133C0D3D0DFF007F08C3004308031DBF
:1006DE00712B722B7B2B0030BD000030BC00003024
:1006EE00BB000030BA00E02B3A08BE003B08BF004A
:1006FE003C08C0003D08C1001F300310C10CC00CE7
:10070E00BF0CBE0CFF3E031D842B3E08FF007F086E
:10071E00C200BC17FF30BA05FF30BB05FF30BC0569
:10072E000030BD059630C302C31F9E2B9F2BB92BE5
:10073E004308803A973E0318A52BA62BA72B722BA6
:10074E0001300310BD0CBC0CBB0CBA0CFF3E031DDC
:10075E00A82B0130FF007F08C307031DB72BB82B52
:10076E00A72BD02B20304302031CBE2BBF2BCB2B31
:10077E00722B0130BE000310BA0DBB0DBC0DBD0DAA
:10078E00BE0BC22B0130C3024308031DCF2BD02B4F
:10079E00C02B42080319D42BD52BE02BBA09BB0969
:1007AE00BC09BD09BA0A0319BB0A0319BC0A03190D
:1007BE00BD0A0800F80078080319E62BE72BFB2B7F
:1007CE00F31FEA2BEB2BFB2B7009FA007109FB00D0
:1007DE007209FC007309FD00FA0A0319FB0A0319DA
:1007EE00FC0A0319FD0A032C7308FD007208FC00B5
:1007FE007108FB007008FA0073087204710470042B
:10080E00031D0A2C0B2C142C0030F3000030F200C8
:10081E000030F1000030F0009A2C9630FF007F0877
:10082E00F900262C0130FF007F08F9070130031074
:10083E00FD0CFC0CFB0CFA0CFF3E031D1E2CFE30B7
:10084E007D05031D2B2C2C2C192C482C0130FF0060
:10085E007F08F9070130FA07003003180130FB0753
:10086E00003003180130FC07003003180130FD077B
:10087E0001300310FD0CFC0CFB0CFA0CFF3E031DAB
:10088E00402CFF307D05031D4D2C4E2C2D2C5A2C4B
:10089E000130F9020130F4000310FA0DFB0DFC0DCE
:1008AE00FD0DF40B532CFC1B5D2C5E2C642C0230C6
:1008BE0079020318632C642C4F2C7918672C682C42
:1008CE00702CFF30FA05FF30FB057F30FC05FF3042
:1008DE00FD050310F90C7908F400F501F601F70196
:1008EE0018300310F40DF50DF60DF70DFF3E031D38
:1008FE00782C7408FA047508FB047608FC04770853
:10090E00FD04780803198C2C8D2C922CF31F902C3F
:10091E00912C922CFD177D08F3007C08F2007B08C9
:10092E00F1007A08F00008008312031323088039BF
:10093E00FF007F08AD002308A8002807FF007F08EE
:10094E00B300A21FAB2CAC2CAD2C331433080319FF
:10095E00B12CB22CC12C330A031DB62CB72CBF2CD4
:10096E000030A3000030A2000030A1000030A00033
:10097E00A217C92C0030A3000030A2000030A10045
:10098E000030A00027088039FF007F08AD06270839
:10099E00A8002807FF007F08B200A61FD72CD82C6E
:1009AE00D92C321432080319DD2CDE2CED2C320A30
:1009BE00031DE22CE32CEB2C0030A7000030A60028
:1009CE000030A5000030A400A617F52C0030A700BB
:1009DE000030A6000030A5000030A4003208031934
:1009EE00F92CFA2CFF2C3308031DFE2CFF2C082D9E
:1009FE000030A3000030A2000030A1000030A000A3
:100A0E00FB2F2008FF007F08F00026080A128A112B
:100A1E0040210A128A11710883120313B90070085B
:100A2E00B8003808A800A901AA01AB012B08B10033
:100A3E002A08B0002908AF002808AE003908A8001F
:100A4E00A901AA01AB012B08B7002A08B600290894
:100A5E00B5002808B4002108FF007F08F000250823
:100A6E000A128A1140210A128A1171088312031385
:100A7E00B9007008B8003808A800A901AA01AB0196
:100A8E002808AE07290803110318013E0319502D3B
:100A9E00AF072A0803110318013E0319572DB0079B
:100AAE002B0803110318013E03195E2DB1073908F7
:100ABE00A800A901AA01AB012808B407290803114F
:100ACE000318013E03196C2DB5072A0803110318EC
:100ADE00013E0319732DB6072B0803110318013EAF
:100AEE0003197A2DB7072208FF007F08F0002408AB
:100AFE000A128A1140210A128A11710883120313F5
:100B0E00B9007008B8003808A800A901AA01AB0105
:100B1E002808AE07290803110318013E0319982D62
:100B2E00AF072A0803110318013E03199F2DB007C2
:100B3E002B0803110318013E0319A62DB10739081E
:100B4E00A800A901AA01AB012808B40729080311BE
:100B5E000318013E0319B42DB5072A080311031813
:100B6E00013E0319BB2DB6072B0803110318013ED6
:100B7E000319C22DB7070830A8000310AE0DAF0D34
:100B8E00B00DB10DA80BC42D2108FF007F08F00099
:100B9E0024080A128A1140210A128A11710883123E
:100BAE000313B9007008B8003808A8003908A90066
:100BBE00AA01AB012808AE07290803110318013E4C
:100BCE000319EA2DAF072A0803110318013E031972
:100BDE00F12DB0072B0803110318013E0319F82D50
:100BEE00B1072008FF007F08F00025080A128A11BD
:100BFE0040210A128A11710883120313B90070087A
:100C0E00B8003808A8003908A900AA01AB012808C5
:100C1E00AE07290803110318013E0319172EAF075B
:100C2E002A0803110318013E03191E2EB0072B08C4
:100C3E0003110318013E0319252EB1070830A80031
:100C4E000310AE0DAF0DB00DB10DA80B272E200861
:100C5E00FF007F08F00024080A128A1140210A12B0
:100C6E008A11710883120313B9007008B80038088E
:100C7E00A8003908A900AA01AB012808AE07290867
:100C8E0003110318013E03194D2EAF072A08031155
:100C9E000318013E0319542EB0072B080311031835
:100CAE00013E03195B2EB1072108FF007F08F000FB
:100CBE0026080A128A1140210A128A11710883121B
:100CCE000313B9007008B8003808A8003908A90045
:100CDE00AA01AB012808B407290803110318013E25
:100CEE0003197A2EB5072A0803110318013E0319BA
:100CFE00812EB6072B0803110318013E0319882E07
:100D0E00B7072208FF007F08F00025080A128A1193
:100D1E0040210A128A11710883120313B900700858
:100D2E00B8003808A8003908A900AA01AB012808A4
:100D3E00B407290803110318013E0319A72EB5079E
:100D4E002A0803110318013E0319AE2EB6072B080D
:100D5E0003110318013E0319B52EB7072208FF0031
:100D6E007F08F00026080A128A1140210A128A1101
:100D7E00710883120313B9007008B8003808A80070
:100D8E003908A900AA01AB0108300310A80DA90D5E
:100D9E00AA0DAB0DFF3E031DCC2E2808B407290863
:100DAE0003110318013E0319DD2EB5072A0803119E
:100DBE000318013E0319E42EB6072B08031103187E
:100DCE00013E0319EB2EB7072E08A8002F08A90025
:100DDE003008AA003108AB0018300310AB0CAA0C77
:100DEE00A90CA80CFF3E031DF42E2808B4072908F1
:100DFE0003110318013E0319052FB5072A08031125
:100E0E000318013E03190C2FB6072B080311031804
:100E1E00013E0319132FB7070830A8000310AE0DBB
:100E2E00AF0DB00DB10DA80B152F33083207A8006A
:100E3E00A901A90D2808823EB80029080318013E11
:100E4E00FF3EB900472F0130A8000310B40DB50DB9
:100E5E00B60DB70DA80B2C2FB11F362F372F382FED
:100E6E0034140130A8000310AE0DAF0DB00DB10D4E
:100E7E00A80B3A2FFF30B8070318B90AFF30B9078D
:100E8E00B61F4A2F4B2F2A2FB201B11F4F2F502FB3
:100E9E006C2FFF302E05A800FF302F05A900FF3064
:100EAE003005AA007F303105AB002B082A04290437
:100EBE0028040319632F642F672FB201B20A6C2F17
:100ECE00341C6A2F6B2F6C2F642F32080319702F6E
:100EDE00712FA22F0130B407003003180130B5076F
:100EEE00003003180130B607003003180130B70781
:100EFE00371C822F832FA22F3408A8003508A90093
:100F0E003608AA003708AB000130AC002B0DAB0C35
:100F1E00AA0CA90CA80CAC0B8D2F2B08B7002A0815
:100F2E00B6002908B5002808B4000130B807031828
:100F3E00B90A0030B9073908803AFF0080307F02C5
:100F4E00031DAB2FFF303802031CAE2FAF2FBA2F6D
:100F5E007F3083120313B7008030B6000030B50027
:100F6E000030B400EF2F831203133908803AFF00CC
:100F7E0080307F02031DC52F013038020318C82FA1
:100F8E00C92FD52F003083120313B7000030B600DF
:100F9E000030B5000030B400AD01EF2F8312031303
:100FAE003808FF007F08B300FF30B405FF30B505E9
:100FBE007F30B6050030B705331CE62FE72FE82F3C
:100FCE00B6173308A8000310280CFF007F08B700DF
:100FDE002D08FF007F08B7043708A3003608A200CB
:100FEE003508A1003408A000080083010A128A11F6
:020FFE004A2A7D
:02400E00FB3F76
:00000001FF
