:020000040000FA
:060000000A128A11F62F1E
:100D1A0001348316031306083F388600080083123D
:100D2A00031388018316031388010A128A118E2677
:100D3A000A128A110800F1007108031DA52EA62EB9
:100D4A00AB2E8312031306083F39C92E3F30831294
:100D5A0003130605F0003F3070060319B52EB62EB0
:100D6A00BD2E7D080319BA2EBB2EBD2EFD01A62E5F
:100D7A003F300605F0003F307006031DC52EC62E13
:100D8A00C82EFD01FD0A3F3008000030F600003091
:100D9A00F5002730F4001030F300F801F901FA01E8
:100DAA00FB010A128A1194260A128A1101300A12C8
:100DBA008A11A0260A128A11FF007F08F7003F3025
:100DCA0077060319E92EEA2EF22E7708FF007F082C
:100DDA00FC000130F8000030F9003E307C06031DAB
:100DEA00F72EF82E042F78037904031DFD2EFE2E0C
:100DFA00042F831203138801F801F901352F3D30BE
:100E0A007C06031D092F0A2F112F78037904031D6D
:100E1A000F2F102F112FFE2E3B307C06031D162F8D
:100E2A00172F242F78037904031D1C2F1D2F242F1D
:100E3A00AA30831203138800F801F901352F3730DD
:100E4A007C06031D292F2A2F352F78037904031DC9
:100E5A002F2F302F352F0F30831203138800212FA5
:100E6A00FF30F307FF30031CF407FF30031CF507BC
:100E7A00FF30031CF607730A031D4D2F740A031D66
:100E8A004D2F750A031D4D2F760A031D4D2F4E2F28
:100E9A00DB2E0030F6000030F5002730F400103069
:100EAA00F3003E307C06031D5B2F5C2FB62F7B08B8
:100EBA00803AFF0080307F02031D652F08307A02D6
:100ECA000318682F692F742F031483120313880DD4
:100EDA000130FA070318FB0A0030FB07DB2E7B08F8
:100EEA00803AFF0080307F02031D7D2F10307A0286
:100EFA000318802F812F882F831203130808F2000A
:100F0A00720788006D2F7B08803AFF0080307F02CD
:100F1A00031D912F18307A020318942F952F9E2FB4
:100F2A00831203130808F2000310720C8038880039
:100F3A006D2F7B08803AFF0080307F02031DA72FA8
:100F4A0020307A020318AA2FAB2FB32F8312031370
:100F5A000808F2000310720C88006D2FFA01FB01D9
:100F6A00DB2E3D307C06031DBB2FBC2FDE2F7B08FA
:100F7A00803AFF0080307F02031DC52F08307A02B5
:100F8A000318C82FC92FCA2F692F7B08803AFF0080
:100F9A0080307F02031DD32F10307A020318D62F18
:100FAA00D72FB32F831203130808F20072078800A1
:100FBA006D2F3B307C06031DE32FE42FE82F8312AD
:100FCA0003138809DB2E37307C06031DED2FEE2F25
:100FDA00F22F831203138809DB2EDB2E0A128A11E1
:100FEA0000280A128A118D260A128A11FD0083012D
:060FFA000A128A11CA2E42
:02400E00FB3F76
:00000001FF
