:020000040000FA
:060000000A128A11E42F30
:10057C008316031306083F38860008000A128A11F6
:10058C00F6220A128A1183160313911408000A1218
:10059C008A11F6220A128A11831603131114080009
:1005AC000A128A11F6220A128A11831603131115E4
:1005BC000800F0000A128A11F6220A128A11700839
:1005CC008312031393000800831603138801050894
:1005DC0003398500831203130508033985000800CD
:1005EC00831603131419FB2AFC2AF62A11081F3947
:1005FC00031D012B022BF62A08003F3406345B3412
:10060C004F3466346D347D3407347F346F340834A2
:10061C00083401343F343F343F343F347E088A0081
:10062C007F0882000A128A1114230A128A11800090
:10063C00840A04087D0603190034FF0A0319FE0A14
:10064C00182B00300A128A11C9230A128A11FF00D2
:10065C007F08FC007C087F39FF007F08FC007C08C9
:10066C00FF007F0883120313AD0000300A128A11B9
:10067C0061230A128A1108000A128A11EA220A124C
:10068C008A110A128A11BE220A128A1100308312B0
:10069C000313B0000130AF008630AE00A030AD00C7
:1006AC000A128A11F6230A128A110A128A112723B6
:1006BC000A128A110800FB000A128A11CD220A12B2
:1006CC008A11A0300A128A11DF220A128A117B08C1
:1006DC000A128A11DF220A128A11831203132D08BF
:1006EC000A128A11DF220A128A110A128A11D622E0
:1006FC000A128A110800F0000A128A11F6220A1254
:10070C008A118316031391150A128A11F6220A1202
:10071C008A11831203131308FF007F08F100700382
:10072C00031D992B9A2B9E2B831603139116A12B29
:10073C00831603139112111671080800F801F901C0
:10074C00741CA92BAA2BB02B7608F8070318F90AEE
:10075C007708F90701300310F60DF70DFF3E031D66
:10076C00B12B01300310F50CF40CFF3E031DB82B1C
:10077C0074087504031DC32BC42BA62B7908F50034
:10078C007808F4000800F2000A128A11CD220A122D
:10079C008A11A0300A128A11DF220A128A117208F9
:1007AC000A128A11DF220A128A110A128A11C42231
:1007BC000A128A11A1300A128A11DF220A128A1136
:1007CC0000300A128A1181230A128A11FF007F0855
:1007DC00F3000A128A11D6220A128A117308080031
:1007EC008312031394152D08B1002E08B2002F08A4
:1007FC00B3003008B40002300310B10DB20DB30DCC
:10080C00B40DFF3E031D022C3408A3003308A200D4
:10081C003208A1003108A0000130A7003130A60039
:10082C002D30A5000030A4000A128A1127250A12C7
:10083C008A11831203132008FF3E831603139300BF
:10084C008312031394160800F1007108031D2F2C5A
:10085C00302C352C8312031306083F397C2C0130C5
:10086C0083120313DA070318DB0A0030DB073F306F
:10087C000605F0003F3070060319452C462C4F2C12
:10088C004D0803194A2C4B2C4F2CCD01DA01DB01FE
:10089C00302C3F300605F0003E307006031D572CFF
:1008AC00582C6B2C5B08803AFF0080307F02031DB4
:1008BC00612C33305A02031C642C652C6B2C831274
:1008CC000313DA01DB0111307C2C3F30831203134C
:1008DC000605F0003F307006031D752C762C7B2C22
:1008EC00DA01DB01CD01CD0A7B2C3F300800730807
:1008FC007204710470040319842C852CC82CF90122
:10090C00F90A952C0130F8000310F00DF10DF20DE1
:10091C00F30DF80B8A2C0130FF007F08F907F31F49
:10092C00982C992C882C73087702031DA72C72081D
:10093C007602031DA72C71087502031DA72C7008E5
:10094C007402031CAA2CAB2CB92C7008F40271088D
:10095C00031C710FF5027208031C720FF602730868
:10096C00031C730FF70201300310F30CF20CF10CA3
:10097C00F00CFF3E031DBA2C0130F902031DC72CED
:10098C00C82C992C7708F3007608F2007508F10052
:10099C007408F0000800F800F90179087807F000F5
:1009AC00700884008313000883120313880004303A
:1009BC00F000790AE32C0310F00DFF3E031DE12C2F
:1009CC0005080339700485000030F7000030F6008C
:1009DC000030F500FA30F4000130F0000030F10086
:1009EC000030F2000030F3007008F4027108031CB0
:1009FC00710F012D022DF5027208031C720F072DC9
:100A0C00082DF6027308031C730F0D2D0E2DF70223
:100A1C00740A031D1B2D750A031D1B2D760A031D5D
:100A2C001B2D770A031D1B2D1C2DF22C0130FF00F2
:100A3C007F08F90704307902031C252D262DD32CB1
:100A4C000800003083120313AB000030AA00003002
:100A5C00A9000030A8002308220421042004031953
:100A6C00382D392D862DAC01AC0A492D0130FA00F8
:100A7C000310A00DA10DA20DA30DFA0B3E2D0130FC
:100A8C00FF007F08AC07A31F4C2D4D2D3C2D0130D2
:100A9C00FA000310A80DA90DAA0DAB0DFA0B4F2DE2
:100AAC0023082702031D642D22082602031D642D32
:100ABC0021082502031D642D20082402031C672D28
:100ACC00682D772D2008A4022108031C210FA502F4
:100ADC002208031C220FA6022308031C230FA702C3
:100AEC00281401300310A30CA20CA10CA00CFF3E87
:100AFC00031D782D0130AC02031D852D862D4D2D47
:100B0C002B08A3002A08A2002908A1002808A0008D
:100B1C0008000A128A1142230A128A1101300A12A1
:100B2C008A112A240A128A11FF007F08FD003E3028
:100B3C007D06031DA22DA32D882E831203135508A9
:100B4C00540453045204031DAC2DAD2DD52D01308E
:100B5C00D607003003180130D707003003180130D6
:100B6C00D807003003180130D9075908031DCD2DC3
:100B7C005808031DCD2D27305702031DC92D1030E9
:100B8C005602031DC92D031CCC2DCD2DD52D0030A7
:100B9C00D9000030D8000030D7000030D60000302B
:100BAC00D5000030D4000030D3000030D20000302B
:100BBC00F3000030F2000030F1000A30F000590868
:100BCC00F7005808F6005708F5005608F4000A120A
:100BDC008A117D240A128A117008413E8400831305
:100BEC000008FF007F0883120313D1000030A3001C
:100BFC000030A2000030A1000A30A0005908F70014
:100C0C005808F6005708F5005608F4000030F300B9
:100C1C000030F2000030F1006430F0000A128A114A
:100C2C007D240A128A11730883120313A700720819
:100C3C00A6007108A5007008A4000A128A112725C5
:100C4C000A128A11831203132008413E8400831375
:100C5C000008FF007F08D0000030A3000030A20085
:100C6C000030A1006430A0005908F7005808F600C5
:100C7C005708F5005608F4000030F3000030F2007D
:100C8C000330F100E830F0000A128A117D240A12B8
:100C9C008A11730883120313A7007208A600710847
:100CAC00A5007008A4000A128A1127250A128A11BD
:100CBC00831203132008413E840083130008FF00B5
:100CCC007F08CF000030A3000030A2000330A10049
:100CDC00E830A0005908A7005808A6005708A5003E
:100CEC005608A4000A128A1127250A128A118312A7
:100CFC0003132008413E840083130008FF007F0883
:100D0C00CE00DA2F3D307D06031D8D2E8E2E492F01
:100D1C000030F3000030F2000030F1000A30F00037
:100D2C00831203135908F7005808F6005708F5000A
:100D3C005608F4000A128A117D240A128A117008CE
:100D4C00FF007F0883120313AD0004300A128A11CE
:100D5C0061230A128A11003083120313A30000309E
:100D6C00A2000030A1000A30A0005908F700580872
:100D7C00F6005708F5005608F4000030F300003078
:100D8C00F2000030F1006430F0000A128A117D2468
:100D9C000A128A11730883120313A7007208A600A3
:100DAC007108A5007008A4000A128A1127250A12DE
:100DBC008A11831203132008FF007F08AD00033053
:100DCC000A128A1161230A128A110030831203134A
:100DDC00A3000030A2000030A1006430A00059082C
:100DEC00F7005808F6005708F5005608F4000030D4
:100DFC00F3000030F2000330F100E830F0000A128A
:100E0C008A117D240A128A11730883120313A70016
:100E1C007208A6007108A5007008A4000A128A11B5
:100E2C0027250A128A11831203132008FF007F085A
:100E3C00AD0002300A128A1161230A128A110030A5
:100E4C0083120313A3000030A2000330A100E8308A
:100E5C00A0005908A7005808A6005708A500560876
:100E6C00A4000A128A1127250A128A11831203136D
:100E7C002008FF007F08AD0001300A128A1161239F
:100E8C000A128A11DA2F11307D06031D4E2F4F2FB7
:100E9C00DA2F01300A128A11C9230A128A1183121D
:100EAC000313B500B6013508F4003608F500E83038
:100EBC00F6000330F7000A128A11A4230A128A11D1
:100ECC00740883120313B7007508B80002300A12B5
:100EDC008A11C9230A128A1183120313B900BA01A9
:100EEC003908F4003A08F5006430F6000030F700D9
:100EFC000A128A11A4230A128A117408831203138A
:100F0C003707BB0075080318750A3807BC00033097
:100F1C000A128A11C9230A128A1183120313BD0003
:100F2C00BE013D08F4003E08F5000A30F600003022
:100F3C00F7000A128A11A4230A128A117408831268
:100F4C0003133B07BF0075080318750A3C07C00064
:100F5C0004300A128A11C9230A128A11831203134C
:100F6C003F07D6000030031801304007D700D801E6
:100F7C00D71BD8035808D9000030D5000030D40056
:100F8C000030D3000130D2003F30FF007F08D10089
:100F9C003F30FF007F08D0003F30FF007F08CF00BC
:100FAC003F30FF007F08CE004E300A128A11D12448
:100FBC000A128A11942D0A128A11002883135230B6
:100FCC00FD000330FE000330FF00413084000A12A4
:100FDC008A1118230A128A11D201D301D401D50126
:100FEC00D601D701D801D901DA01DB0183010A123C
:040FFC008A118F2D9A
:02400E00FB3F76
:00000001FF
