:020000040000FA
:060000000A128A110E280D
:10000800FE00030EF0000A08F1007F08F2000A164D
:100018008A11202C0A128A1111288313DD30FD0061
:100028001030FE006730FF00C43084000A168A11C1
:100038002E200A128A116730FD001F30FE0083301F
:10004800FF00613084000A168A112E200A128A11D4
:100058000A168A1115200A128A11F8000A168A113E
:1000680016200A128A11F900A0308400C4300A163A
:100078008A1590270A128A114230840061300A16C4
:100088008A1590270A128A11FA0183010A128A1125
:100098004D28831603135A08E0005B08E1005C084A
:1000A800E200E601E60AE301DF01E401E5010A16E0
:1000B8008A1158230A128A11E03083120313A4000C
:1000C8000030A500A6010A168A11C6240A128A1150
:1000D8003130F40000300A168A119D200A128A1164
:1000E8003030F40001300A168A119D200A128A1154
:1000F8003130F40002300A168A119D200A128A1142
:100108003030F40003300A168A119D200A128A1131
:10011800F40104300A168A119D200A128A110A3045
:1001280083120313A0000030A1000A168A15EE27D7
:100138000A128A11740883120313A3007308A20019
:100148000A168A1192230A128A11831203132008AD
:1001580083160313E80064306802031CB428B5282A
:10016800B7286330E8000A128A113B270A128A115D
:1001780083160313E900D030DD000730DE00FF30BE
:10018800DD070318DE0AFF30DE075D0A031DD028ED
:100198005E0A031DD028D128C3283E306906031DF6
:1001A800D628D728F3287B30F3008930F400E030D4
:1001B8000A168A11FA200A128A11E03083120313F0
:1001C800A4000030A50083160313680883120313E4
:1001D800A6000A168A11C6240A128A11182C3D3064
:1001E8006906031DF828F9282B290630630203182D
:1001F800FE28FF282B29630883120313C000400739
:10020800C43E840083130008F300840A00088403B2
:10021800F400E0300A168A11FA200A128A11E03036
:1002280083120313A4000030A50083160313680883
:1002380083120313A6000A168A11C6240A128A1109
:100248000130FF007F0883160313E307182C3B30A7
:100258006906031D302931295E29630803193529E8
:1002680036295E290130E302630883120313C000B4
:100278004007C43E840083130008F300840A000882
:100288008403F400E0300A168A11FA200A128A114F
:10029800E03083120313A4000030A5008316031373
:1002A800680883120313A6000A168A11C6240A12C4
:1002B8008A11182C373069060319632964296A29B9
:1002C8002F306906031D69296A29AF296603031DB2
:1002D8006E296F29AF29F30101300A168A11B0225D
:1002E8000A128A11043083120313C1003D30C00082
:1002F800C00B7C29C10B7C29AA3083120313A000F0
:100308008830A1008030A2000A168A1149220A12F8
:100318008A11C63083120313A70020300A168A11E7
:100328003D200A128A11F3010F300A168A11B022F1
:100338000A128A11A53083120313C000C00BA22928
:10034800A529023083160313E600E701E70A8312A2
:1003580003131215182C11306906031DB429B52989
:100368005A2A04306606031DBA29BB295A2A3F2A8D
:10037800F30101300A168A11B0220A128A11763066
:1003880083120313A0008930A1008030A2000A164E
:100398008A1149220A128A11083083160313E600CB
:1003A8000830E700182CF30101300A168A11B02230
:1003B8000A128A11103083160313E6000430E7008E
:1003C800182C8D30A4008930A50083160313680803
:1003D80083120313A6000A168A11C6240A128A1168
:1003E8000A128A155B220A128A11F30101300A16D1
:1003F8008A11B0220A128A11043083160313E60008
:100408000530E700182C9930A4008930A500831620
:100418000313680883120313A6000A168A11C62458
:100428000A128A11F30101300A168A11B0220A123F
:100438008A11403083160313E6001030E700182CA9
:100448009330A4008930A50083160313680883122B
:100458000313A6000A168A11C6240A128A11F30188
:1004680001300A168A11B0220A128A1180308316C6
:100478000313E600A9295F0883120313C000C10112
:100488004108003A0319492A182C4008003A031970
:10049800BC29013A0319D729033A0319E529013A76
:1004A8000319072A073A0319242A182C2230690647
:1004B800031D5F2A602A762A043066060319652A16
:1004C800662A6C2A08306606031D6B2A6C2A762A6F
:1004D800E601E60AF30101300A168A11B0220A126F
:1004E8008A11182C11306906031D7B2A7C2A8C2A54
:1004F80008306606031D812A822A8C2A0430E60009
:10050800F30101300A168A11B0220A128A11182C36
:10051800182CF3010C300A168A11B0220A128A111B
:10052800A53083120313C000C00B982A9B2A831698
:100538000313680883120313A900E0300A168A110E
:100548006F240A128A113B2C043083160313E60029
:100558000530E700F30101300A168A11B0220A12A9
:100568008A11043083120313C1003D30C000C00B50
:10057800BB2AC10BBB2AF3010C300A168A11B02220
:100588000A128A11A53083120313C000C00BCA2AAD
:10059800CD2A3B2C83160313E601E60A83120313C4
:1005A8001211F3010C300A168A11B0220A128A11AC
:1005B800C62A83160313670883120313A900831638
:1005C800031369080A128A15F0240A128A11831281
:1005D8000313C000C1014108003A0319F42A3B2C57
:1005E8004008013A0319A82A023A0319CE2A3B2CDB
:1005F80083160313670883120313A90083160313D2
:1006080069080A168A110F270A128A11831603131A
:10061800DF003B2C83160313670883120313A9001A
:100628008316031369080A128A1570260A128A119A
:100638003B2C8316031367080A168A111A220A121A
:100648008A11113A031D292B2A2B302B323083169D
:100658000313E4000030E500043083160313670633
:10066800031D372B382B492B8A3083120313A40020
:100678008930A50083160313680883120313A600A4
:100688000A168A11C6240A128A11831603136508EA
:10069800803AFF0080307F02031D542B0130640232
:1006A800031C572B582B3B2CFF3083160313E407EE
:1006B8000318E50AFF30E50764086504031D652B88
:1006C800662B3B2C0430E6000530E700F3010130CF
:1006D8000A168A11B0220A128A1193288316031364
:1006E800670883120313A9008316031369080A1203
:1006F8008A1142240A128A11113A031D842B852B70
:100708008B2B643083160313E4000030E500831656
:1007180003136508803AFF0080307F02031D962B83
:1007280001306402031C992B9A2B3B2CFF30831653
:100738000313E4070318E50AFF30E50764086504B6
:10074800031DA72BA82B3B2C0430E6000530E7003F
:10075800F30101300A168A11B0220A128A1193286D
:10076800643083160313E4000030E500F3010C3015
:100778000A168A11B0220A128A11EF2B0430831646
:100788000313E6000530E700F3010C300A168A115E
:10079800B0220A128A11932883160313670883125A
:1007A8000313A9008316031369080A128A159323F1
:1007B8000A128A1183120313C000C1014108003ACA
:1007C8000319E72BEF2B4008033A0319C22B123AFF
:1007D8000319B42BEF2B831603136508803AFF0027
:1007E80080307F02031DFA2B01306402031CFD2BAD
:1007F800FE2B3B2CFF3083160313E4070318E50A8E
:10080800FF30E50764086504031D0B2C0C2C3B2CFA
:100818000430E6000530E700F30101300A168A11BA
:10082800B0220A128A1193288316031366088312CA
:100838000313C000C1014108003A0319242C3B2CC2
:100848004008013A03198D2A033A0319DD2A063AAA
:100858000319FC2A0C3A03190E2B183A03191D2BFD
:10086800503A0319722BC03A0319D02B3B2C83162C
:100878000313E70193280A128A110E28831203131F
:10088800AD0010302906031D4A2C4B2CD82C0A1613
:100898008A11DB250A128A110F30831603133905D2
:1008A80083120313AA008316031338080F3983121F
:1008B8000313AB00AC012B08F3002C08F4000A303A
:1008C800F5000030F6000A168A1199210A128A11D9
:1008D800831203132A087307C2000030031801307B
:1008E8007407C3000F30831603133B0583120313E9
:1008F800AA00831603133A080F3983120313AB00B7
:10090800AC012B08F3002C08F4000A30F500003085
:10091800F6000A168A1199210A128A118312031302
:100928002A087307C4000030031801307407C50093
:100938000F30831603133D0583120313AA00831691
:1009480003133C080F3983120313AB00AC012B08C7
:10095800F3002C08F4000A30F5000030F6000A16FF
:100968008A1199210A128A11831203132A0873071C
:10097800C6000030031801307407C700BB30A00060
:100988008830A1008030A2000A168A1149220A1272
:100998008A11023083120313CD000030CE00DC012F
:1009A800DB013F30AD00DA015A080319DC2CDD2CDD
:1009B8000F2E22303A2F4D08AA002A07423E840003
:1009C800013083138007840A0318800A222E03301B
:1009D800F3000030F4004D08013EF5004E080318FE
:1009E800013E003EF6000A168A111E250A128A11D7
:1009F800740883120313CE007308CD00222E0A1642
:100A08008A11DB250A128A110A30F3000030F4003B
:100A1800831203134308F6004208F5000A168A11E8
:100A28001E230A128A11730883120313AA0074087A
:100A3800AB000A30A0000030A1004308A300420820
:100A4800A2000A168A1192230A128A11831203132A
:100A58002008AC0003300310AC0DFF3E031D2F2D02
:100A680003102C0D2A04B2004808C0393204C8000B
:100A78004808F40002300A168A11BB200A128A11AB
:100A88000A30F3000030F400831203134508F6001F
:100A98004408F5000A168A111E230A128A117308DF
:100AA80083120313AA007408AB000A30A0000030B8
:100AB800A1004508A3004408A2000A168A1192233F
:100AC8000A128A11831203132008AC0003300310A2
:100AD800AC0DFF3E031D6B2D03102C0D2A04B20034
:100AE800490880393204C9004908F40001300A165F
:100AF8008A11BB200A128A110A30F3000030F40070
:100B0800831203134708F6004608F5000A168A11EF
:100B18001E230A128A11730883120313AA00740889
:100B2800AB000A30A0000030A1004708A300460827
:100B3800A2000A168A1192230A128A118312031339
:100B48002008AC0003300310AC0DFF3E031DA72D99
:100B580003102C0D2A04B2004A0880393204CA0056
:100B68004A08F40000300A168A11BB200A128A11BA
:100B7800F30101300A168A11B0220A128A111730BD
:100B880083120313A0008930A1008230A2000A1644
:100B98008A1149220A128A11313083120313A000E4
:100BA8008930A100C230A2000A168A1149220A120D
:100BB8008A11003083120313B1000030B0000030F6
:100BC800AF000030AE00013083120313AE070030CF
:100BD80003180130AF07003003180130B0070030A8
:100BE80003180130B1073108031D092E3008031D11
:100BF800092E4E302F02031D052E20302E02031D14
:100C0800052E031C082E092EE72D83120313DA0183
:100C1800DA0A11303A2F2D08AA00AB012B08003A46
:100C28000319172E222E2A081F3A0319032D303ACA
:100C38000319EB2C183A0319DF2C222E003043023B
:100C4800183003194202031C2A2E2B2E2D2EC20106
:100C5800C301003045023C3003194402031C352E01
:100C6800362E382EC401C501003047023C30031926
:100C78004602031C402E412E432EC601C7010130F7
:100C8800FF007F08DC0733305C06031D4C2E4D2E19
:100C9800DD2CDC015B080319522E542E0130552E31
:100CA8000030DB00C030A7000A30A0000030A100EF
:100CB8004308A3004208A2000A168A1192230A12C6
:100CC8008A11831203132008303E0A168A113D2028
:100CD8000A128A11C13083120313A7000A30F300E5
:100CE8000030F4004308F6004208F5000A168A119D
:100CF8001E230A128A117308303E0A168A113D20F3
:100D08000A128A11C23083120313A7003A300A1656
:100D18008A113D200A128A11C33083120313A700D7
:100D28000A30A0000030A1004508A3004408A20032
:100D38000A168A1192230A128A11831203132008B1
:100D4800303E0A168A113D200A128A11C4308312D5
:100D58000313A7000A30F3000030F4004508F6003A
:100D68004408F5000A168A111E230A128A1173080C
:100D7800303E0A168A113D200A128A11C5308312A4
:100D88000313A7003A300A168A113D200A128A1165
:100D9800C63083120313A7000A30A0000030A10058
:100DA8004708A3004608A2000A168A1192230A12CD
:100DB8008A11831203132008303E0A168A113D2037
:100DC8000A128A11C73083120313A7000A30F300EE
:100DD8000030F4004708F6004608F5000A168A11A4
:100DE8001E230A128A117308303E0A168A113D2002
:100DF8000A128A11831203135B080319042F052FA3
:100E0800DD2C2A2F4030A0008830A100C030A2007D
:100E18000A168A1149220A128A11DD2C4030A000D4
:100E28008830A100C330A2000A168A1149220A128A
:100E38008A11DD2C4030A0008830A100C630A20005
:100E48000A168A1149220A128A11DD2C4E08003A24
:100E580003192F2FDD2C4D08003A0319062F013AEC
:100E68000319122F033A03191E2FDD2C08008312D1
:100E7800031306083F39F3003F3073060319452F63
:100E8800462F522F7A08031D4A2F4B2F522FFA0153
:100E9800FA0AE501E6017308E000C22F3F30730645
:100EA800031D572F582F6F2F7A0803195C2F5D2FBA
:100EB8006F2FFA016608803AFF0080307F02031D19
:100EC800672F1E30650203186A2F6B2FC22F8312FB
:100ED80003136008C32F7A080319732F742F8A2FFE
:100EE8006608803AFF0080307F02031D7D2F1F3087
:100EF80065020318802F812F8A2F01308312031374
:100F0800E5070318E60A0030E607C22F7A08031936
:100F18008E2F8F2FA62F1F308312031365066604AA
:100F2800031D972F982FA62F37307306031D9D2F6B
:100F38009E2FA62F0130E5070318E60A0030E607C2
:100F48001130C32F7A080319AA2FAB2FC22F1F30D5
:100F58008312031365066604031DB32FB42FC22F33
:100F68002F307306031DB92FBA2FC22F0130E507A2
:100F78000318E60A0030E6072230C32F3F30080086
:100F8800013083120313E3070318E40A0030E4076F
:100F98000A3063066404031DD22FD32FD72FE30131
:100FA800E401DF01DF0A0A30F30063080A168A1138
:100FB80052200A128A11053E83120313A000A4309E
:100FC800F60020080A168A1180200A128A11790868
:100FD800803AFF0080307F02031DF42F0930780229
:100FE8000318F72FF82FFE2F0130F8070318F90A16
:060FF8000030F9070800BB
:1010000052346534203465346E347434653472344B
:1010100020346E3465347734203470346134733462
:10102000733477346F347234643420342034203491
:101030002034003445346E347434653472342034D2
:101040006E346534773420347034613473347334DF
:1010500077346F34723464342034203420342034B4
:101060000034203420342034203420342034203400
:1010700020342034203420342034203420342034D0
:101080002034203400344E346F3420346C346F34C8
:1010900067347334203461347634613469346C34A9
:1010A000613462346C346534003420345734523443
:1010B0004F344E3447342034503441345334533455
:1010C00057344F34523444342034003420342034E4
:1010D000543449344D3445342034203420342034C1
:1010E00020344534203420345334503400347734A1
:1010F000613469347434203466346F34723420348B
:101100002E342E3436343034733465346334003442
:10111000503461347334733477346F3472346434DC
:1011200020346334683461346E3467346534643435
:101130000034503461347334733477346F34723420
:101140006434203420346334683461346E3467345A
:1011500065340034203445344E34543445345234EC
:101160002034503441345334533457344F34523490
:10117000443420340034543469346D3465342034BC
:101180002834483448343A344D344D343A345334A6
:1011900053342934003459346F3475342034613475
:1011A00072346534203462346C346F3463346B349D
:1011B0006534643400346334683461346E346734C5
:1011C00065342034703461347334733477346F345D
:1011D00072346434003461347434743465346D347E
:1011E000703474342034523465346D34613469346D
:1011F0006E347334003444346F3477346E346C346A
:101200006F346134643420346C346F346734203488
:101210000034733475346334633465347334733435
:10122000663475346C346C3479342034003454347E
:1012300069346D34653420346334683461346E3419
:1012400067346534643400344C346F346734733439
:10125000203463346C3465346134723465346434FE
:101260000034533475346334633465347334733405
:10127000663475346C346C347934003473347534BA
:1012800063346334653473347334663475346C3466
:101290006C347934003473346534743420347434E9
:1012A00069346D3465342034003463346C3465340F
:1012B0006134723420346C346F34673400347634E3
:1012C00069346534773420346C346F3467340034D7
:1012D0004C346F346734733420343A340034663419
:1012E000613469346C346534643400344C346F34A4
:1012F0006734733400344334203400344734313499
:101300000034473432340034473433340034473403
:101310003434003443344C34003444344C340034DA
:1013200047344E340034433450340034473452345C
:10133000003443345434003483120313A000CB2907
:1013400020088400831300080319A729A829B429B9
:10135000730884000008F600200884000008760660
:101360000319B329B429C329730884000008F600BF
:10137000200884000008F70076087702F300F401E3
:10138000031CF403DB290130FF007F08A0070130B4
:10139000FF007F08F3070130F4020030031CF5035F
:1013A000F502740A031DD829750A031DD829D92905
:1013B000A029F301F4010800C33083120313A10034
:1013C000CC30A000A00BE229A10BE2290000F30120
:1013D00033300A168A11B0220A128A151B30831282
:1013E0000313A1009D30A000A00BF429A10BF42948
:1013F000F929F30133300A168A11B0220A128A152C
:10140000A53083120313A000A00B042A072AF301BE
:1014100033300A168A11B0220A128A150F2A102AAE
:101420000000F30102300A168A11B0220A128A154E
:10143000A53083120313A000A00B1C2A1F2AF3015E
:1014400028300A168A11B0220A128A15A530831292
:101450000313A000A00B2A2A2D2AF30101300A163B
:101460008A11B0220A128A15043083120313A100D4
:101470003D30A000A00B3A2AA10B3A2AF3010C3010
:101480000A168A11B0220A128A15A5308312031394
:10149000A000A00B492A4C2AF3010F300A168A112A
:1014A000B0220A128A15A53083120313A000A00BE4
:1014B000572A5A2A0800FF3083120313B000FF3066
:1014C000B100AC01780A031D692A790A031D692A53
:1014D0006A2A742A4330F4008830F5000A168A110B
:1014E0001F210A128A15922B6830F4008930F5000A
:1014F0000A168A111F210A128A150A300A168A153D
:10150000BE270A128A150A300A168A15BE270A1241
:101510008A150D300A168A15BE270A128A15822BE3
:10152000013083120313B0070318B10A0030B1076A
:101530005F08031D9C2A9D2AA02AAE01AF01B72A8D
:101540000A30F3000030F4006308013EF50064083F
:101550000318013E003EF6000A168A111E250A12E3
:101560008A15740883120313AF007308AE000A30A3
:10157000F3000030F40030082E07F500310803189E
:10158000310A2F07F6000A168A111E250A128A153B
:10159000740883120313AF007308AE00B201B301E5
:1015A0000A30F300831203132E080A168A11522000
:1015B0000A128A15831203133207053EAD00320862
:1015C000223E84002D080A168A11EF210A128A157C
:1015D00083138000013083120313B2070318B30A88
:1015E0000030B3073308803AFF0080307F02031DCC
:1015F000FB2A0A303202031CFE2AFF2AD02A831259
:1016000003133008303E0A168A15BE270A128A15BF
:1016100020300A168A15BE270A128A158312031370
:1016200022080A168A15BE270A128A158312031386
:1016300023080A168A15BE270A128A153A300A1696
:101640008A15BE270A128A158312031324080A1664
:101650008A15BE270A128A158312031325080A1653
:101660008A15BE270A128A153A300A168A15BE272D
:101670000A128A158312031326080A168A15BE2732
:101680000A128A158312031327080A168A15BE2721
:101690000A128A1520300A168A15BE270A128A15E0
:1016A0008312031328080A168A15BE270A128A1500
:1016B0008312031329080A168A15BE270A128A15EF
:1016C00020300A168A15BE270A128A1583120313C0
:1016D0002A080A168A15BE270A128A1583120313CE
:1016E0002B080A168A15BE270A128A150A300A160E
:1016F0008A15BE270A128A150D300A168A15BE27CA
:101700000A128A15831203133108803AF700790808
:10171000803A7702031D8E2B78083002031C912B30
:10172000922B902A080083120313AC002903031D97
:101730009A2B9B2BB22B3E30F3008830F400043000
:10174000F5000030F600AF300A168A11D8230A12CD
:101750008A1583120313CB01CC01D9011E30D500A9
:101760000030D60055085604031DB72BB82BBA2BF2
:101770000330EF2C59080319BE2BBF2BC12B22308D
:10178000EF2C4C08803AFF0080307F02031DCA2BEB
:1017900004304B020318CD2BCE2BDC2B1A308312D6
:1017A0000313A0008830A1008030A2000A168A111D
:1017B00049220A128A15662C831203134C08803AB8
:1017C000FF0080307F02031DE72B04304B02031C17
:1017D000EA2BEB2B662C831203134C08803AFF0094
:1017E00080307F02031DF62B08304B020318F92BC3
:1017F000FA2B662C003083120313A0008830A1005E
:101800008030A2000A168A1149220A128A15662C13
:101810004B08AF3E84003030831380004B080339FF
:10182000C03EA7002A300A168A113D200A128A15E6
:10183000013083120313CB070318CC0A0030CC0706
:101840001E30D5000030D60004304B064C04031D7A
:101850002A2C2B2C782C3130A0008830A100C030ED
:10186000A2000A168A1149220A128A15782C4B08FE
:10187000AF3E84003130831380004B080339C03EF3
:10188000A7002A300A168A113D200A128A15013053
:1018900083120313CB070318CC0A0030CC071E3089
:1018A000D5000030D60004304B064C04031D592CE3
:1018B0005A2C782C3130A0008830A100C030A20012
:1018C0000A168A1149220A128A15782C83120313E8
:1018D0002C08AA00AB012B08003A0319702C782CB5
:1018E0002A082F3A0319082C183A0319372C782C98
:1018F0000830831203134B064C04031D802C812CEB
:10190000BF2BB330F3000430F4000030F500AF30EB
:101910000A128A159C210A128A1573087404031D81
:10192000922C932CCD2C83160313B701B330F60001
:1019300000300A168A1180200A128A15013083129B
:101940000313CB070318CC0A0030CC07F301013096
:101950000A168A11B0220A128A15883083120313DC
:10196000A0008830A1008030A2000A168A11492206
:101970000A128A15093083120313A0008930A100CE
:10198000C230A2000A168A1149220A128A1583124D
:101990000313D901D90A1130EF2CF30101300A16D3
:1019A0008A11B0220A128A15993083120313A000FB
:1019B0008830A1008030A2000A168A1149220A123A
:1019C0008A156F3083120313A0008930A100C5303F
:1019D000A2000A168A1149220A128A15C72C080089
:1019E00083120313B1002903031DF72CF82C0C2DCF
:1019F0003F30B1000330DD00DE01D701D80183168E
:101A00000313BF01C001C101C201C301053083122C
:101A10000313D5000030D60055085604031D112DC0
:101A2000122D142D03306F2EF3010F300A168A1178
:101A3000B0220A128A153730831203133106031DB0
:101A4000222D232D432D04305E020318282D292D2D
:101A5000432D0530D5000030D6005E08BF3E84001F
:101A60003130831380005E08C63EA7002A300A1674
:101A70008A113D200A128A150130FF007F08831267
:101A80000313DE07632D2F303106031D482D492D2A
:101A9000632D04305E0203184E2D4F2D632D05304B
:101AA000D5000030D6005E08BF3E8400303083137E
:101AB00080005E08C63EA7002A300A168A113D2023
:101AC0000A128A153C2D04305E06031D682D692D0F
:101AD0006E2E2C300A168A1145210A128A152C30D6
:101AE000F300BF300A168A116F210A128A15730893
:101AF0007404031D7C2D7D2D7F2D01306F2E013050
:101B000083120313DD02031D862D872DF92DF301AA
:101B10000C300A168A11B0220A128A15F30101301C
:101B20000A168A11B0220A128A150430831203138E
:101B3000AB003D30AA00AA0B9B2DAB0B9B2DCB30ED
:101B400083120313A0008830A1008030A2000A167F
:101B50008A1149220A128A15773083120313A000D2
:101B60008830A100C030A2000A168A1149220A1248
:101B70008A153C3083120313D7000030D800EE2DB5
:101B8000CB30A7000A30F3000030F4005808F6000C
:101B90005708F5000A168A11A6260A128A15730834
:101BA000303E0A168A113D200A128A15CC30831263
:101BB0000313A7000A30F3000030F4005808F600C1
:101BC0005708F5000A168A111E250A128A1573088D
:101BD000303E0A168A113D200A128A158312031319
:101BE00057085804031DF52DF62DC02D0330DD00D8
:101BF000492EF30101300A168A11B0220A128A1501
:101C0000043083120313AB003D30AA00AA0B062E4A
:101C1000AB0B062EF3010C300A168A11B0220A1201
:101C20008A15A53083120313AA00AA0B152E182EAD
:101C3000553083120313A0008830A1008030A20029
:101C40000A168A1149220A128A15C0308312031318
:101C5000A7005D08303E0A168A113D200A128A1537
:101C6000EB3083120313A0008830A100C230A20021
:101C70000A168A1149220A128A15033083120313A5
:101C8000D7000030D80057085804031D482E492EAD
:101C9000432EF30101300A168A11B0220A128A1566
:101CA000043083120313AB003D30AA00AA0B562E5A
:101CB000AB0B562EAA3083120313A0008830A1006C
:101CC0008030A2000A168A1149220A128A1583124C
:101CD0000313DE010530D5000030D60010300800B7
:101CE00083120313B700B501780A031D7B2E790A0E
:101CF000031D7B2E7C2E882E4330A0008830A1004F
:101D0000C030A2000A168A1149220A128A15FF2F32
:101D100008302906031D8D2E8E2E902ECF01D00166
:101D20005F08031D942E952E982EBC01BD01AF2E89
:101D30000A30F3000030F4006308013EF500640847
:101D40000318013E003EF6000A168A111E250A12EB
:101D50008A15740883120313BD007308BC00373062
:101D60003706031DB42EB52ED72E5008803AAA0090
:101D70007908803A2A02031DBF2E78084F02031803
:101D8000C22EC32ED72E013083120313CF070318A0
:101D9000D00A0030D0073130A0008830A100C03018
:101DA000A2000A168A1149220A128A15FF2E2F3024
:101DB000831203133706031DDE2EDF2EFF2E50087D
:101DC000803AFF0080307F02031DE82E01304F0271
:101DD000031CEB2EEC2EFF2EFF3083120313CF07D4
:101DE0000318D00AFF30D0073130A0008830A1009E
:101DF000C030A2000A168A1149220A128A150A3036
:101E0000F3000030F400831203134F083C07F50081
:101E100050080318500A3D07F6000A168A111E25BD
:101E20000A128A15740883120313BD007308BC00DC
:101E3000BE01BF010A30F300831203133C080A16E7
:101E40008A1152200A128A15831203133E07053E97
:101E5000B6003E082B3E840036080A168A11EF2190
:101E60000A128A1583138000013083120313BE0700
:101E70000318BF0A0030BF073F08803AFF008030D8
:101E80007F02031D452F0A303E02031C482F492FB5
:101E90001A2FC03083120313A7004F08303E0A16D2
:101EA0008A113D200A128A15C23083120313A7003B
:101EB0002B080A168A113D200A128A15C330831294
:101EC0000313A7002C080A168A113D200A128A154E
:101ED000C43083120313A7003A300A168A113D203A
:101EE0000A128A15C53083120313A7002D080A169B
:101EF0008A113D200A128A15C63083120313A700E7
:101F00002E080A168A113D200A128A15C73083123C
:101F10000313A7003A300A168A113D200A128A15C7
:101F2000C83083120313A7002F080A168A113D2018
:101F30000A128A15C93083120313A70030080A1643
:101F40008A113D200A128A15CB3083120313A70091
:101F500031080A168A113D200A128A15CC308312E4
:101F60000313A70032080A168A113D200A128A15A7
:101F7000CE3083120313A70033080A168A113D20BE
:101F80000A128A15CF3083120313A70034080A16E9
:101F90008A113D200A128A15003083120313BB00F8
:101FA0000030BA000030B9000030B80001308312B0
:101FB0000313B807003003180130B90700300318C5
:101FC0000130BA07003003180130BB073B08031D7E
:101FD000F82F3A08031DF82F4E303902031DF42F55
:101FE00020303802031DF42F031CF72FF82FD62FB3
:101FF000F3010C300A168A11B0220A128A15080061
:10200000FF1B0A2883137F1883170008840A03190B
:10201000FF0A08007F087F398A000408840A031930
:04202000FF0A820031
:10202A00FF34FF3400300A168A11C4210A168A11B5
:10203A00F70077087F39F7007708F40000300A16AE
:10204A008A11BB200A168A1108007E088A007F08B6
:10205A0082000A168A112A200A168A118000840A26
:10206A0004087D0603190034FF0A0319FE0A2E2804
:10207A0083120313A800F30127080A168A11B02253
:10208A000A168A11F301F30A8312031328080A169F
:10209A008A11B0220A168A110800F500F401751C8B
:1020AA00572858285C287308FF007F08F407031094
:1020BA00F30D0310F50C7508031D642865285428D0
:1020CA007408080090348934963489347E3489340B
:1020DA008134893484348934873489345F34893447
:1020EA0055348934FB3488344B348934DB348834AE
:1020FA004F344E340034F7009428760884000008E0
:10210A00F40077080A168A119D200A168A110130EE
:10211A00FF007F08F6070130FF007F08F7077608FF
:10212A00840083130008031D9B289C28822808002A
:10213A00F5000A168A1598270A168A11A0300A1677
:10214A008A15B3270A168A1175080A168A15B3273B
:10215A000A168A1174080A168A15B3270A168A11EA
:10216A000A168A15A1270A168A110800F5000A1606
:10217A008A1598270A168A11D0300A168A15B327A3
:10218A000A168A1175080A168A15B3270A168A11B9
:10219A0074080A168A15B3270A168A110A168A15A6
:1021AA00A1270A168A110800F3000A168A15D427ED
:1021BA000A168A118316031391150A168A15D4274B
:1021CA000A168A11831203131308F4007303031DFA
:1021DA00EF28F028F428831603139116F72883169C
:1021EA0003139112111674080800F6007608F50018
:1021FA0008290130FF007F08F5070130F3070318AB
:10220A00F40A0030F407740883120313FF007308FA
:10221A0084000A168A1100200A168A11FF0075081E
:10222A0084007F08831380000008031D1D291E29CE
:10223A00FE28080034297508FF00740884000A166D
:10224A008A1100200A168A110A168A15BE270A164A
:10225A008A110130F4070318F50A0030F5077508EA
:10226A0083120313FF00740884000A168A110020DF
:10227A000A168A11003A031D432944292029080015
:10228A0083120313A000A101A201831203132108E0
:10229A002007F7007708840021080A168A11EF211F
:1022AA000A168A1183138000013083120313A107CF
:1022BA000318A20A0030A2072208803AFF008030E1
:1022CA007F02031D6A2905302102031C6D296E292C
:1022DA004A29080083120313A1007B290130FF0059
:1022EA007F08A1070130FF007F08F3077308840005
:1022FA0083130008F500210884000008F600750819
:10230A007602A0002008031D8B298C299329210815
:10231A0084000008031D9229932973292008F300D9
:10232A00F401F31BF403080083120313A001A101B3
:10233A00731CA029A129A929750883120313A007D0
:10234A000318A10A7608A10701300310F50DF60D4E
:10235A00FF3E031DAA2901300310F40CF30CFF3EC3
:10236A00031DB12973087404031DBC29BD299D29C5
:10237A00831203132108F4002008F3000800F50073
:10238A000A168A1598270A168A11D0300A168A154B
:10239A00B3270A168A1175080A168A15B3270A1668
:1023AA008A110A168A15AA270A168A11D1300A161C
:1023BA008A15B3270A168A1100300A168A11D920FB
:1023CA000A168A11F6000A168A15A1270A168A1110
:1023DA0076080800F5000A168A1598270A168A113F
:1023EA00A0300A168A15B3270A168A1175080A1622
:1023FA008A15B3270A168A110A168A15AA270A16EF
:10240A008A11A1300A168A15B3270A168A110030D2
:10241A000A168A11D9200A168A11F6000A168A158E
:10242A00A1270A168A1176080800F70024308312B9
:10243A000313A0008930A1008230A2000A168A1173
:10244A0049220A168A113E3083120313A0008930EA
:10245A00A100C230A2000A168A1149220A168A115C
:10246A0004307706031D3A2A3B2A472AFF30831293
:10247A000313E300FF30E400FF30F800FF30F900F7
:10248A001130482A22300800F3018312031322086C
:10249A000A168A11B0220A168A116B2AF301F30A64
:1024AA002108FF00200884000A168A1100200A1653
:1024BA008A110A168A11B0220A168A110130831269
:1024CA000313A0070318A10A0030A10783120313FC
:1024DA002108FF00200884000A168A1100200A1623
:1024EA008A11003A031D7A2A7B2A532A080083128A
:1024FA00031394152D08F4002E08F5002F08F60092
:10250A003008F70002300310F40DF50DF60DF70D43
:10251A00FF3E031D882A7708A3007608A2007508E3
:10252A00A1007408A0000130A7003130A6002D30A8
:10253A00A5000030A4000A168A113E260A168A113E
:10254A00831203132008FF3E83160313930083129A
:10255A00031394160800F6007318B42AB82A8312D3
:10256A0003130915BB2A8312031309117608F039DC
:10257A0088008914A630F400F40BC12A00008312E3
:10258A000313891076080F39F40003300310F40D91
:10259A00FF3E031DCB2A0310740D88008914A63050
:1025AA00F400F40BD62A00008312031389101B309F
:1025BA00F5009E30F400F40BE02AF50BE02A000047
:1025CA000800831203139817831603131815981615
:1025DA008312031318162D08F4002E08F5002F088D
:1025EA00F6003008F70004300310F40DF50DF60D6F
:1025FA00F70DFF3E031DF92A7708A3007608A2000B
:10260A007508A1007408A0000130A7003130A600A7
:10261A002D30A5000030A4000A168A113E260A169B
:10262A008A11831203132008FF3E831603139900AD
:10263A000800730874040319232B242B532BF70166
:10264A00F70A322B01300310F30DF40DFF3E031D80
:10265A00282B0130FF007F08F707F41F352B362B94
:10266A00272B74087602031D3C2B73087502031C82
:10267A003F2B402B462B7308F5027408031CF60304
:10268A00F60201300310F40CF30CFF3E031D472B36
:10269A000130F702031D522B532B362B7608F40018
:1026AA007508F30008000A168A15C9270A168A113E
:1026BA00003083120313B0000130AF008630AE0041
:1026CA00A030AD000A168A117C220A168A110A164F
:1026DA008A1117200A168A110A168A1589270A16D4
:1026EA008A110A168A157D270A168A110A168A1568
:1026FA00E1270A168A11003083120313B000003052
:10270A00AF002530AE008030AD000A168A11E622ED
:10271A000A168A118B170B17080083120313A501D7
:10272A00A6012008210403199B2B9C2BD32BA4015F
:10273A00A40AAA2B01300310A00DA10DFF3E031D10
:10274A00A02B0130FF007F08A407A11FAD2BAE2BE1
:10275A009F2B01300310A50DA60DFF3E031DAF2BC5
:10276A0021082302031DBB2B20082202031CBE2BB7
:10277A00BF2BC62B2008A2022108031CA303A30215
:10278A00251401300310A10CA00CFF3E031DC72B1A
:10279A000130A402031DD22BD32BAE2B2608A10095
:1027AA002508A000080083120313A2002208A30030
:1027BA00022C0130F5020030031CF603F6027408FD
:1027CA00A1007308A000F30A0319F40A2108FF0004
:1027DA00200884000A168A1100200A168A11FF00AE
:1027EA00230884000130A3077F08831380000008B0
:1027FA00031D002C012C022C112C75087604031DD4
:10280A00072C082CDE2B112C23088400831380014B
:10281A000130FF007F08A3070130F5020030031CD6
:10282A00F603F602750A031D1E2C760A031D1E2CDA
:10283A001F2C092C0800831203138C1C252C262C10
:10284A00662C0130D3070318D40A0030D407E230CB
:10285A005306043003195406031D342C352C632CFB
:10286A00D301D4015808803AFF0080307F02031D4B
:10287A00402C01305702031C432C442C4C2CFF30B3
:10288A0083120313D7070318D80AFF30D807831215
:10289A0003135608803AFF0080307F02031D572C2D
:1028AA0001305502031C5A2C5B2C632CFF30831217
:1028BA000313D5070318D60AFF30D607831203136A
:1028CA008C107208FF0071088A00700E8300FE0ED9
:1028DA007E0E090083120313AC006630A000883014
:1028EA00A1008030A2000A168A1149220A168A110A
:1028FA00831203132C08A0000030A100CB30A200E1
:10290A000A168A1149220A168A11CE308312031333
:10291A00A7000A30F3000030F4002908AA00AB012E
:10292A002A08F5002B08F6000A168A11A6260A16A6
:10293A008A117308303E0A168A113D200A168A1136
:10294A00CF3083120313A7000A30F3000030F400DB
:10295A002908AA00AB012A08F5002B08F6000A1676
:10296A008A111E250A168A117308303E0A168A1120
:10297A003D200A168A110A168A1179250A168A1121
:10298A0008000A168A11DB250A168A11B830F300E4
:10299A000030F4000630F5000030F600A4300A16C4
:1029AA008A11D8230A168A11831203132408F30002
:1029BA002508F4000230F5000030F600AA300A16A5
:1029CA008A11D8230A168A110A30F3000030F4005B
:1029DA00831203132608A700A8012708F500280870
:1029EA00F6000A168A11A6260A168A117308303EBC
:1029FA0083160313AC000A30F3000030F40083128C
:102A0A0003132608A700A8012708F5002808F600DE
:102A1A000A168A111E250A168A117308303E831671
:102A2A000313AD00AE010A128A11C4270A168A11CD
:102A3A00080083120313A101F61F242D252D2C2D26
:102A4A00F509F609F50A0319F60AA101A10AF41F04
:102A5A002F2D302D352DF309F409F30A0319F40A41
:102A6A007308740403193A2D3B2D6A2DA001A00A9C
:102A7A00492D01300310F30DF40DFF3E031D3F2DC8
:102A8A000130FF007F08A007F41F4C2D4D2D3E2D6D
:102A9A0074087602031D532D73087502031C562D04
:102AAA00572D5D2D7308F5027408031CF603F60210
:102ABA0001300310F40CF30CFF3E031D5E2D0130B0
:102ACA00A002031D692D6A2D4D2D210803196E2DB3
:102ADA006F2D742DF509F609F50A0319F60A760819
:102AEA00F4007508F30008000A168A11DB250A1695
:102AFA008A11C23083120313A700831603133808FE
:102B0A000A168A113D200A168A11C330831203134A
:102B1A00A7008316031339080A168A113D200A16DC
:102B2A008A11C43083120313A7003A300A168A1195
:102B3A003D200A168A11C53083120313A700831693
:102B4A0003133A080A168A113D200A168A11C6305A
:102B5A0083120313A700831603133B080A168A116C
:102B6A003D200A168A11C73083120313A7003A3090
:102B7A000A168A113D200A168A11C83083120313D5
:102B8A00A700831603133C080A168A113D200A1669
:102B9A008A11C93083120313A700831603133D0851
:102BAA000A168A113D200A168A11080002300A16EE
:102BBA008A11C4210A168A1183120313C80001302C
:102BCA000A168A11C4210A168A1183120313C9002C
:102BDA0000300A168A11C4210A168A1183120313B5
:102BEA00CA004808F70004300310F70CFF3E031D23
:102BFA00F92D77080339303E83160313B800831280
:102C0A00031348080F39303E83160313B9008312A1
:102C1A0003134908F70004300310F70CFF3E031DA5
:102C2A00112E77080739303E83160313BA00831230
:102C3A00031349080F39303E83160313BB0083126E
:102C4A0003134A08F70004300310F70CFF3E031D74
:102C5A00292E77080739303E83160313BC008312E6
:102C6A0003134A080F39303E83160313BD00BE0111
:102C7A000800003083120313AB000030AA000030B2
:102C8A00A9000030A8002308220421042004031903
:102C9A004F2E502E9D2EAC01AC0A602E0130F3004F
:102CAA000310A00DA10DA20DA30DF30B552E01309B
:102CBA00FF007F08AC07A31F632E642E532E01303A
:102CCA00F3000310A80DA90DAA0DAB0DF30B662E88
:102CDA0023082702031D7B2E22082602031D7B2EB2
:102CEA0021082502031D7B2E20082402031C7E2EA8
:102CFA007F2E8E2E2008A4022108031C210FA50274
:102D0A002208031C220FA6022308031C230FA70272
:102D1A00281401300310A30CA20CA10CA00CFF3E36
:102D2A00031D8F2E0130AC02031D9C2E9D2E642E96
:102D3A002B08A3002A08A2002908A1002808A0003D
:102D4A00080083120313A101F41FAC2EAD2EB42E7A
:102D5A00F309F409F30A0319F40AA101A10AF61FF7
:102D6A00B72EB82EC12EF509F609F50A0319F60A87
:102D7A000130FF007F08A106A201A30173087404B1
:102D8A000319C82EC92E002FA001A00AD72E013080
:102D9A000310F30DF40DFF3E031DCD2E0130FF008D
:102DAA007F08A007F41FDA2EDB2ECC2E0130031089
:102DBA00A20DA30DFF3E031DDC2E74087602031D2F
:102DCA00E82E73087502031CEB2EEC2EF32E730803
:102DDA00F5027408031CF603F602221401300310EC
:102DEA00F40CF30CFF3E031DF42E0130A002031D68
:102DFA00FF2E002FDB2E21080319042F052F0A2F7F
:102E0A00A209A309A20A0319A30A2308F4002208A3
:102E1A00F300080083120313AC0005302906031DD2
:102E2A00172F182F1E2FD101D2010130E1000030D7
:102E3A00E20037302C06031D232F242F562F520869
:102E4A00803AFF0080307F02031D2D2F043051028B
:102E5A000318302F312F562F013083120313D10755
:102E6A000318D20A0030D2076208803AFF00803085
:102E7A007F02031D422F023061020318452F462F9D
:102E8A004E2F013083120313E1070318E20A0030C0
:102E9A00E207F30101300A168A11B0220A168A11D2
:102EAA008F2F2F30831203132C06031D5D2F5E2FE5
:102EBA008F2F5208803AFF0080307F02031D672F50
:102ECA0001305102031C6A2F6B2F8F2FFF308312A0
:102EDA000313D1070318D20AFF30D2076208803AD7
:102EEA00FF0080307F02031D7C2F02306102031C29
:102EFA007F2F802F882FFF3083120313E1070318D7
:102F0A00E20AFF30E207F30101300A168A11B02201
:102F1A000A168A118312031361036204031D962F92
:102F2A00972FCA2F8030A7002A300A168A113D200F
:102F3A000A168A11831203135108AA002A07D03EDF
:102F4A00840083130008A000840A00088403A100F7
:102F5A008230A2000A168A1149220A168A1183129D
:102F6A0003135108AA002A07D23E840083130008DB
:102F7A00A000840A00088403A100C230A2000A1635
:102F8A008A1149220A168A11FC2FC030A7002A305A
:102F9A000A168A113D200A168A1183120313510850
:102FAA00AA002A07CE3E840083130008A000840AE0
:102FBA0000088403A1008230A2000A168A1149225D
:102FCA000A168A11831203135108AA002A07D03E4F
:102FDA00840083130008A000840A00088403A10067
:102FEA00C230A2000A168A1149220A168A118312CD
:062FFA000313510808005A
:103EFA008316031306083F3886000800013400348D
:103F0A00FF34FF3401340034831603139F178312DE
:103F1A0003131F14080064008001840A04060319AD
:103F2A0000340406912F0A168A15D4270A168A1510
:103F3A0083160313111408000A168A15D4270A16C1
:103F4A008A1583160313111508000A168A15D42731
:103F5A000A168A158316031391140800F3000A1629
:103F6A008A15D4270A168A15730883120313930035
:103F7A000800F30073088312031399000C1EC62F5E
:103F8A00C72FC32F0C1208008316031388010911C7
:103F9A0089100A128A15DC210A168A150800831666
:103FAA0003131419D92FDA2FD42F11081F39031D1F
:103FBA00DF2FE02FD42F0800831203131214921458
:103FCA00FA308316031392008C148312031312110E
:103FDA000800831203131F151F19F42FF52FF12F51
:103FEA001E08F600831603131E08F5007608F4006F
:063FFA007508F300080049
:02400E00FB3F76
:00000001FF
