:020000040000FA
:060000000A128A11EE2F26
:100BD0008316031306083F38860008000A128A119C
:100BE000F9250A128A110A128A11E8250A128A11B5
:100BF0000800831603138801050803398500831252
:100C0000031305080339850008007E088A007F0861
:100C100082000A128A1105260A128A118000840AAB
:100C200004087D0603190034FF0A0319FE0A092E81
:100C30003F340034063400345B3400344F34003425
:100C4000663400346D3400347D34003407340034AD
:100C50007F3400346F3400340834003408340034F6
:100C60000134F1007108031D362E372E3C2E8312FD
:100C7000031306083F395A2E3F308312031306052B
:100C8000F0003F3070060319462E472E4E2E5B08AB
:100C900003194B2E4C2E4E2EDB01372E3F3006050E
:100CA000F0003F307006031D562E572E592EDB01E3
:100CB000DB0A3F300800700871040319602E612EB2
:100CC000902EF401F40A6F2E01300310F00DF10D97
:100CD000FF3E031D652E0130FF007F08F407F11F62
:100CE000722E732E642E71087302031D792E700804
:100CF0007202031C7C2E7D2E832E7008F202710876
:100D0000031CF303F30201300310F10CF00CFF3E5F
:100D1000031D842E0130F402031D8F2E902E732E9E
:100D20007308F1007208F0000800F800F901790872
:100D30007807F000700884008313000883120313FF
:100D400088000430F000790AA72E0310F00DFF3E52
:100D5000031DA52E05080339700485000030F70037
:100D60000030F6000030F500C830F4000130F0002B
:100D70000030F1000030F2000030F3007008F4029F
:100D80007108031C710FC52EC62EF5027208031CD4
:100D9000720FCB2ECC2EF6027308031C730FD12ECC
:100DA000D22EF702740A031DDF2E750A031DDF2EF3
:100DB000760A031DDF2E770A031DDF2EE02EB62EE6
:100DC0000130FF007F08F90704307902031CE92E87
:100DD000EA2E972E08000A128A11EE250A128A11AD
:100DE0003E30FF007F0883120313BE0020308400D2
:100DF0004330FA000408FB001830FC007A08840035
:100E000083130008FD00FA0A7B0884007D08800037
:100E1000FB0AFC0BFE2EBC01BD01C101C201BF01DA
:100E2000BF0A01300A128A1131260A128A11FF0004
:100E30007F0883120313C0003E3040060319212FA0
:100E4000222F282F3D304006031D272F282F2D2F1E
:100E50004008FF007F08BE003D2F3B304006031DC9
:100E6000322F332F3D2F3F080319372F392F0130F1
:100E70003A2F0030FF007F08BF003F080319412FC1
:100E8000422F832F0130BC070318BD0A0030BD0775
:100E9000C9303C063D04031D4E2F4F2F832FBC014C
:100EA000BD013E303E06031D562F572F6A2F4208C4
:100EB000FB004108FA00C10A0319C20A00307B0294
:100EC0000B3003197A02031C662F672F832FC10191
:100ED000C201832F3D303E06031D6F2F702F832FDD
:100EE0000130C1020030031CC203C202410A031DCB
:100EF0007D2F420A031D7D2F7E2F832F0B30C100D3
:100F00000030C200832F4108FA007A07203E840097
:100F100083130008FF007F08B8000C30F000003099
:100F2000F1004108013EF20042080318013E003E74
:100F3000F3000A128A115B260A128A117008FA005D
:100F40007A07203E840083130008FF007F08831285
:100F50000313B9000C30F0000030F1004108023EEC
:100F6000F20042080318013E003EF3000A128A1103
:100F70005B260A128A117008FA007A07203E840064
:100F800083130008FF007F0883120313BA000C309C
:100F9000F0000030F1004108033EF200420803185F
:100FA000013E003EF3000A128A115B260A128A11E2
:100FB0007008FA007A07203E840083130008FF00BF
:100FC0007F0883120313BB0038300A128A1195265A
:100FD0000A128A11112F0A128A11002883135C3019
:100FE000FD000630FE001830FF00433084000A1276
:100FF0008A1109260A128A1183010A128A11EB2E1C
:02400E00FB3F76
:00000001FF
