:020000040000FA
:060000000A128A110C280F
:10000800FE00030EF0000A08F1000A128A11D42833
:100018000A128A110F2883135030FD000230FE00A7
:100028003530FF00443084000A128A1126220A1251
:100038008A11B801B901BA01BB01BC01BD01BE01F9
:10004800BF01C001C101C201C301F901FA01830165
:100058000A128A112F280A128A1141220A128A11B9
:100068002A308400443083120313A6000408A70032
:100078000A30A8002608840083130008A900A60AED
:100088002708840029088000A70AA80B3E280A3000
:10009800F2000030F300831203134F08F5004E08F6
:1000A800F4000A128A11A4210A128A1172082A3E3F
:1000B800840083130008FF007F0883120313B40031
:1000C80040084104031969286A2885280A30F20083
:1000D8000030F3004F08F5004E08F4000A128A11A8
:1000E800E8210A128A1172082A3E84008313000844
:1000F8008038FF007F0883120313B500C001C101D7
:100108009C280A30F2000030F3004F08F5004E0832
:10011800F4000A128A11E8210A128A1172082A3E8A
:10012800840083130008FF007F0883120313B500BF
:100138000A30F2000030F3004308F5004208F400EA
:100148000A128A11A4210A128A1172082A3E84000E
:1001580083130008FF007F0883120313B6000A30D8
:10016800F2000030F3004308F5004208F4000A12D8
:100178008A11E8210A128A1172082A3E8400831320
:100188000008FF007F0883120313B70034300A12F7
:100198008A114E210A128A114B280A128A110C2838
:1001A8000B1DD728D8284729831203130108083EB6
:1001B80081000130BC07003003180130BD07003052
:1001C80003180130BE07003003180130BF07803024
:1001D8003C064F3003193D06123003193E063F0412
:1001E800031DF728F82806290130C2070318C30A97
:1001F8000030C3070030BF000030BE000030BD0033
:100208000030BC000130B807003003180130B907CE
:10021800003003180130BA07003003180130BB075B
:10022800A23039064A3003193A06043003193B064E
:100238003804031D2029212931290130CE0703184C
:10024800CF0A0030CF07C201C3010030BB00003025
:10025800BA000030B9000030B8000130F9070318BF
:10026800FA0A0030FA0710307906273003197A069F
:10027800031D3F29402946290130C0000030C10034
:10028800F901FA010B1171088A00700E8300FE0E45
:100298007E0E090083120313A400A5012508240774
:1002A800F200720884008313000888000430F2000A
:1002B800250A60290310F20DFF3E031D5E2905087B
:1002C8000339720485000030A3000030A200013019
:1002D800A1009030A0000130F2000030F30000309F
:1002E800F4000030F5007208A0027308031C730FB5
:1002F8007E297F29A1027408031C740F842985298B
:10030800A2027508031C750F8A298B29A302200AEB
:10031800031D9829210A031D9829220A031D9829DB
:10032800230A031D982999296F290130FF007F08A6
:10033800A50704302502031CA229A3295229080075
:10034800F601F701720873040319AB29AC29E329F4
:10035800F801F80ABA2901300310F20DF30DFF3E37
:10036800031DB0290130FF007F08F807F31FBD29DE
:10037800BE29AF2901300310F60DF70DFF3E031D0E
:10038800BF2973087502031DCB2972087402031C68
:10039800CE29CF29D6297208F4027308031CF50365
:1003A800F502761401300310F30CF20CFF3E031D26
:1003B800D7290130F802031DE229E329BE2977086D
:1003C800F3007608F2000800720873040319ED2997
:1003D800EE291D2AF601F60AFC2901300310F20D58
:1003E800F30DFF3E031DF2290130FF007F08F607D9
:1003F800F31FFF29002AF12973087502031D062A35
:1004080072087402031C092A0A2A102A7208F402C4
:100418007308031CF503F50201300310F30CF20C0A
:10042800FF3E031D112A0130F602031D1C2A1D2A56
:10043800002A7508F3007408F20008007E088A0094
:100448007F0882000A128A1122220A128A11800069
:10045800840A04087D0603190034FF0A0319FE0AFA
:10046800262A3F3406345B344F3466346D347D3489
:1004780007347F346F340C3400340A128A1159223D
:100488000A128A110A128A114D220A128A118B172E
:1004980008008316031388010508033985008312B1
:1004A8000313050803398500080083160313811216
:0E04B800811506308312031381008B16080095
:02400E00FB3F76
:00000001FF
