:020000040000FA
:100000000A128A11EE2FFF1B0D2883137F18831706
:100010000008840A0319FF0A080000308A00040857
:10002000840A820700345234693467346834743483
:1000300020345334633472346F346C346C34693428
:060040006E346734003449
:100D08000A128A118A260A128A1108008316031306
:100D18008801091189100A128A111A270A128A11E0
:100D28000800483465346C346C346F345F345F3495
:100D38005F345F345F345F345F3400347E088A0088
:100D48007F0882000A128A11A2260A128A118000DC
:100D5800840A04087D0603190034FF0A0319FE0AF1
:100D6800A62EF00176080A128A11E4260A128A11C0
:100D7800D32EF001F00A7508FF00740884000A12E7
:100D88008A1103200A128A110A128A11E4260A1209
:100D98008A110130F4070318F50A0030F5077508C1
:100DA80083120313FF00740884000A128A110320B7
:100DB8000A128A11003A031DE22EE32EBD2E080006
:100DC800F3007018E82EEC2E831203130915EF2E8A
:100DD8008312031309117308F03988008914A630A7
:100DE800F100F10BF52E000083120313891073082C
:100DF8000F39F10003300310F10DFF3E031DFF2EE4
:100E08000310710D88008914A630F100F10B0A2F28
:100E180000008312031389101B30F2009E30F1008A
:100E2800F10B142FF20B142F00000800C330F5004B
:100E3800CD30F400F40B1E2FF50B1E2FF0013330CC
:100E48000A128A11E4260A128A111B30F5009E3014
:100E5800F400F40B2D2FF50B2D2F0000F00133308B
:100E68000A128A11E4260A128A11A630F400F40B39
:100E78003B2F0000F00133300A128A11E4260A12CF
:100E88008A11462F472F0000F00102300A128A11FA
:100E9800E4260A128A11A630F400F40B512F000040
:100EA800F00128300A128A11E4260A128A11A630A3
:100EB800F400F40B5D2F0000F00101300A128A11D2
:100EC800E4260A128A110430F5003D30F400F40BD0
:100ED8006B2FF50B6B2F702FF0010C300A128A1153
:100EE800E4260A128A11A630F400F40B792F0000C8
:100EF80008000A128A1184260A128A1120308400F6
:100F08003230F7000408F8000D30F9007708840043
:100F180083130008FA00F70A780884007A0880002A
:100F2800F80AF90B8A2F0130F4008030F500803080
:100F3800FF007F08F6000A128A11B5260A128A11E4
:100F4800831203132B08FF007F08AF000C30B0009A
:100F58000030B100831203133008FF3E203E8400A6
:100F680083130008FF003008203E84007F088000BB
:100F7800FF30B0070318B10AFF30B1073108803AD3
:100F8800FF0080307F02031DCB2F01303002031891
:100F9800CE2FCF2FAE2F831203132F08FF007F0809
:100FA800A0002030F4000030F500C030FF007F08BA
:100FB800F6000A128A11B5260A128A110130831224
:100FC8000313AD070318AE0A0030AE07972F0A12B5
:100FD8008A11002883133F30FD000630FE0095304B
:100FE800FF00323084000A128A11A6260A128A11DA
:080FF80083010A128A117D2F0A
:02400E00FB3F76
:00000001FF
