:020000040000FA
:060000000A128A1110280B
:10000800FE00030EF8000A08F900831203137F08A4
:10001800FA000A128A11EE2B0A128A111328831386
:100028004F30FD000430FE00BC30FF004230840039
:100038000A128A119F240A128A1120308400323051
:100048000A128A11DB24FB01FC0183010A128A11BE
:100058002D28831203134B08BC004A08BB000A1260
:100068008A1171240A128A1101300A128A11502445
:100078000A128A11FF007F0883120313C100410A84
:10008800031D46282E082F04031D3828410A03198A
:1000980089282D08803AFF0080307F02031D5628EA
:1000A80008302C0203188928831203134108FF0023
:1000B8002C08203E84007F08831380002C08C03E53
:1000C800FF007F08B6002A300A128A1188240A1213
:1000D8008A11831203132C08423E840083130008FC
:1000E800B9002C08203E840000083906031D822828
:1000F8000130AA070318AB0A0030AB070130AC0780
:100108000318AD0A0030AD073828083083120313EE
:100118002C062D04031DD1282D082B06031D962817
:100128002C082A06031DD128B2010C300A128A11A4
:1001380074230A128A1183120313B20101300A12BE
:100148008A1174230A128A11213083120313B6000C
:100158008030B7008030FF007F08B8000A128A118B
:1001680020240A128A11013083120313B60080304A
:10017800B700C030FF007F08B8000A128A11202497
:100188000A128A11013083120313AE000030AF0047
:100198008B1E38288B128613382808302C062D041D
:1001A800031D52292D082B06031DDC282C082A06BE
:1001B800031952293008023EB00031080318013EE5
:1001C800003EB1008B1E8B160130A8070318A90A40
:1001D8000030A907AA01AB01AC01AD010130CC0088
:1001E8000030CD00B20101300A128A1174230A12BC
:1001F8008A1183120313B2010C300A128A11742374
:100208000A128A113F3083120313B6008030B700F8
:100218008030FF007F08B8000A128A1120240A12D1
:100228008A113B3083120313B6000030B7008930BF
:10023800FF007F08B8000A128A1120240A128A11C6
:10024800831203133B08013EFF007F08BB00003008
:10025800C0000030BF000030BE000030BD000130DB
:10026800BD07003003180130BE0700300318013005
:10027800BF07003003180130C0074008031D3828A5
:100288003F08031D382803303E02031D4F29E8307C
:100298003D02031D4F290318382833290530280645
:1002A8002904031D8C29B2010C300A128A11742307
:1002B8000A128A1183120313B20101300A128A1139
:1002C80074230A128A11373083120313B600803060
:1002D800B7008030FF007F08B8000A128A11202476
:1002E8000A128A112F3083120313B6008030B70028
:1002F800C030FF007F08B8000A128A1120240A12B1
:100308008A11013083120313AE000030AF00382881
:10031800410A031D38282C082D04031D38284C08D1
:100328004D0403193828CC01CD01B20101300A125D
:100338008A1174230A128A11123083120313B60029
:100348008030B7008030FF007F08B8000A128A1199
:1003580020240A128A1183120313B201C0300A1230
:100368008A1174230A128A1183120313B2010F30FF
:100378000A128A1174230A128A1138288312031365
:1003880088110815881408146430B2000030B300CE
:10039800FF30B2070318B30AFF30B307320A031D50
:1003A800CC29330A031DCC290618DC2901300800A2
:1003B8008618E029023008000619E42903300800ED
:1003C80088150811881408146430B2000030B3008E
:1003D800FF30B2070318B30AFF30B307320A031D10
:1003E800EC29330A031DEC290618FC2904300800FF
:1003F8008618002A053008000619042A0630080065
:1004080088150815881008146430B2000030B3004D
:10041800FF30B2070318B30AFF30B307320A031DCF
:100428000C2A330A031D0C2A06181C2A0730080058
:100438008618202A083008000619242A09300800DE
:1004480088150815881408106430B2000030B3000D
:10045800FF30B2070318B30AFF30B307320A031D8F
:100468002C2A330A031D2C2A06183C2A2A30080095
:100478008618402A003008000619442A233008004C
:10048800FF300800C33083120313B700CC30B60026
:10049800B60B4C2AB70B4C2A000083120313B20187
:1004A80033300A128A11B1230A128A111B308312BF
:1004B8000313B7009D30B600B60B602AB70B602A4D
:1004C800652A83120313B20133300A128A11B12349
:1004D8000A128A11A53083120313B600B60B722ACA
:1004E800752A83120313B20133300A128A11B12319
:1004F8000A128A117F2A802A000083120313B2018C
:1005080002300A128A11B1230A128A11A530831205
:100518000313B600B60B8E2A912A83120313B20175
:1005280028300A128A11B1230A128A11A5308312BF
:100538000313B600B60B9E2AA12A83120313B20135
:1005480001300A128A11B1230A128A110430831267
:100558000313B7003D30B600B60BB02AB70BB02A6C
:1005680083120313B2010C300A128A11B1230A1242
:100578008A11A53083120313B600B60BC12AC42A08
:100588000800F501F11FCF2AF009F109F00A031953
:10059800F10AF501F50AF31FDA2AF209F309F20A5A
:1005A8000319F30A0130FF007F08F506F601F70189
:1005B800700871040319112BF401F40AF11BF02AD5
:1005C80001300310F00DF10DFF3E031DE52A013047
:1005D800FF007F08F407E22A01300310F60DF70D3B
:1005E800FF3E031DF12A71087302031DFD2A7008DE
:1005F8007202031C062B7008F2027108031CF30335
:10060800F302761401300310F10CF00CFF3E031DC9
:10061800072B0130F402031DF02A75080319192B62
:10062800F609F709F60A0319F70A7708F1007608B8
:10063800F0000800FF1B282B83137F18831700087E
:10064800840A0319FF0A080003308A000408840A90
:100658008207003463347234613463346B34653434
:1006680064342034743468346534203463346F342B
:1006780064346534003445346E347434653472340B
:100688002034503461347334733477346F347234B3
:100698006434003465347834633465346C346C34D1
:1006A80065346E347434203479346F3475340034DE
:1006B80062346C346F3463346B34653464340034BE
:1006C80079346F34753420346134723465340034CD
:1006D80061347434743465346D3470347434003473
:1006E80083120313B500321C7D2B831203130915E3
:1006F800802B8312031309113508F03988008914F7
:10070800A53083120313B300B30B882B8B2B8312F2
:100718000313891035080F39B30003300310B30DE4
:10072800FF3E031D922B0310330D88008914A5305A
:1007380083120313B300B30B9F2BA22B8312031353
:1007480089101B3083120313B4009D30B300B30B20
:10075800AB2BB40BAB2BB02B080083120313B500E3
:10076800321CBA2B831203130915BD2B83120313F2
:1007780009113508F03988008914A530831203134C
:10078800B300B30BC52BC82B83120313891035088C
:100798000F39B30003300310B30DFF3E031DCF2BF9
:1007A8000310330D88008914A53083120313B30096
:1007B800B30BDC2BDF2B8312031389101B3083123E
:1007C8000313B4009D30B300B30BE82BB40BE82B34
:1007D800ED2B08000B1D152C0108083E810031087F
:1007E800F1003008F0002030F2004E30F3000A1219
:1007F8008A11C5220A128A110130FB070318FC0A64
:100808000030FC0771087C06031D0C2C70087B0661
:10081800031D142CFB01FC01803083120313860690
:100828000B117A0883120313FF0079088A00780EE7
:100838008300FE0E7E0E090083120313B2013808EE
:100848000A128A11B1230A128A1183120313370874
:10085800FF00360884000A128A111E230A128A1120
:10086800003A03190800B201B20A3708FF00360837
:1008780084000A128A111E230A128A110A128A1186
:10088800B1230A128A11013083120313B607031821
:10089800B70A0030B707292C83120313B4000A12D1
:1008A8008A11C2210A128A11FF007F0883120313DA
:1008B800B50034080319652C672C4E0803196A2CF7
:1008C800CE0135080800350A031D612C350A031DC1
:1008D8006F2CCE01CE0AFF3008008316031386134F
:1008E8008312031306087F3986008B170A128A11B0
:1008F800D2240A128A110A128A11AC240A128A1105
:100908000A128A11C924080083120313B700B2011E
:1009180036080A128A11B1230A128A1183120313A4
:10092800B201B20A37080A128A11B12308007E08F8
:100938008A007F0882009B240A128A118000840A98
:1009480004087D0603190034FF0A0319FE0A9F2CC8
:10095800831603130608073886000808F03988004C
:1009680081138312031388150815881408140800C6
:1009780000340134003401340034013400340134CB
:1009880031340034013400340134831603138112E6
:1009980081150630831203138100080083160313A0
:1009A8008801091189100A128A1146220800640078
:0E09B8008001840A0406031900340406DC2CB6
:02400E00FB3F76
:00000001FF
